:1000000000100020011500008355000083550000FA
:100010008355000083550000835500008355000080
:100020008355000083550000835500008355000070
:100030008355000083550000835500008355000060
:100040008355000083550000835500008355000050
:100050008355000083550000835500008355000040
:100060008355000083550000835500008355000030
:100070008355000083550000835500008355000020
:100080008355000083550000835500008355000010
:100090008355000083550000835500008355000000
:1000A00083550000835500008355000083550000F0
:1000B00083550000835500008355000083550000E0
:1000C00083550000835500008355000083550000D0
:1000D00083550000835500008355000083550000C0
:1000E00083550000835500008355000083550000B0
:1000F00083550000835500008355000083550000A0
:10010000835500008355000083550000835500008F
:10011000835500008355000083550000835500007F
:10012000835500008355000083550000835500006F
:10013000835500008355000083550000835500005F
:1001400008B52DED048BDFED1A7AC0EE277A17EE95
:10015000900A02F0F7FC41EC180BB0EE480AF0EE02
:10016000680A04F07BFD51EC100B02F0CBFD9FED13
:100170000E1BB0EE480AF0EE680A09EE100A04F011
:1001800037FD51EC100B02F0BDFDB1EE047A07EE25
:10019000900A67EE877AB0EE087A87EE870A30EE2B
:1001A000090ABDEC048B08BD000000000000F03F10
:1001B0000000C84200000000F0B52DED028B97B0A2
:1001C0000D4604461146284605F09FF9002800F028
:1001D000CC810023EE1C03223046B9490C9305F074
:1001E000EDFB002840F0F6800DF1230307930EABE2
:1001F00006930DAB05930CAB049312AB03930DF177
:10020000220302930BAB01930DF121030093AD493F
:100210000AAB09AAE81D03F04BF900287EDDDDEDED
:10022000097AFDEEE77A642017EE902A92FBF0F54A
:1002300042F2107195FBF0F392FBF1F100FB1353C6
:1002400000FB15223C20E36043434FF4616000FB58
:10025000013313446360236E2261C4ED007A0C9A6B
:10026000A160002B5ED0013B23660C9B626AE362B7
:10027000E3699342226AC8BF6362934200DB02B91A
:10028000236294ED0E7AF7EE007AB4EEE77AF1EE9F
:1002900010FA0CDB226A9632934208DD94F8503053
:1002A0002BB90123884884F8503002F0B1FD94ED59
:1002B0000E7AFAEE047AB4EEE77AF1EE10FA14D57B
:1002C000626AE36902F1310199420EDB236A03F2AB
:1002D000CF739A4209DD94F85030012B05D10223E7
:1002E0007A4884F8503002F093FDA06B02F02AFCAB
:1002F00071A3D3E9002302F0F1FC78B140F6340396
:10030000E2699A420ADC94F85030023B012B05D88E
:1003100004236F4884F8503002F07AFD17B0BDEC2A
:10032000028BF0BD032AA0DD9DED0A0AFFF708FF4E
:100330009DF8213084ED060A532B04BFB1EE400A2C
:1003400084ED060A9DED0B0AFFF7FAFEDDED0E7A4D
:10035000FDEEE77A9FED5F7AC4ED077AD4ED067A79
:100360009DF8223084ED050A572B08BFB1EE400AF4
:1003700067EE877A08BF84ED050AFDEEE77A17EE8F
:10038000900AD4ED057A67EE877AFDEEE77A524F50
:1003900017EE901A3A68514B22B9C3E900010123C4
:1003A0003B6062E7561E53F8365003EBC60676688C
:1003B000451B8E1B764305FB0565494EB5427FF70D
:1003C00054AF43F8320003EBC2030132C3ED017AAC
:1003D0003A604AE703223046424905F0EFFA002826
:1003E00038D10DAB06930DF1220303930BAB0293AF
:1003F0000DF12103019312AE0AAB0EAF8DF8380058
:100400008DF8480000933849059604970DF12303B1
:1004100009AAE81D03F04CF806287FF77FAF38469D
:1004200005F02BFB51EC100B02F06CFC08EE100AEF
:10043000304605F022FBBDEEC88A51EC100B84ED6E
:100440000C8A02F05FFC07EE900AFDEEE77AC4ED3D
:100450000D7A63E703223046244905F0AFFAA0B9CC
:10046000234802F0D5FC12AA1546224B03F11006D0
:10047000144618685968083303C4B3422246F7D1BA
:100480001021284600F0A4FF48E7032230461A490D
:1004900005F094FAB0BB194802F0BAFC12AA15464E
:1004A000174B03F11006144618685968083303C443
:1004B000B3422246F7D1E3E79A9999999999B9BF3E
:1004C0005163000055630000736300008563000002
:1004D00099630000002474497012002074120020F7
:1004E000232E0200A9630000AD630000D263000068
:1004F000D663000078640000E6630000EA63000051
:1005000088640000032230461C4905F057FA80B980
:100510001B4802F07DFC12AA15461A4B03F1100687
:10052000144618685968083303C4B3422246F7D109
:10053000A6E703223046144905F040FA80B9134873
:1005400002F066FC12AA1546114B03F11006144680
:1005500018685968083303C4B3422246F7D18FE7BD
:1005600029460C4802F054FCD8E60B4817B0BDEC05
:10057000028BBDE8F04002F04BBC00BFFA63000004
:10058000FE630000986400000E6400001264000026
:10059000A8640000226400003D6400000000000028
:1005A0002DE9F04F9DB082460C464FF000080F92A7
:1005B00000224FF0000918920A46179211782B2951
:1005C0003BD02CD80D2926D8082926D800292FD091
:1005D00000220D92179D2A78302A7DD16A7802F088
:1005E000DF02582A6ED1029317A90D9B50468A4A02
:1005F000019318AB009319AB02F0ECFF10F00F065B
:1006000004463ED0062E1AD10F9B0BB101351D605A
:1006100042464B4640E02029DAD10132CDE72D2970
:10062000D6D101210D91511C17915278002AD1D1B8
:100630000F9B002BECD01C60EAE70021F2E7189A30
:100640003AB135211AA805F071FD1899504603F00A
:1006500009FE013E199A042E06D8DFE806F02203AF
:100660002B2E2200DDE91A89E10548BF49F0004937
:1006700029F000431B0D1B051BB904F0A1F922232F
:1006800003600F9B13B1179B0F9A13600D9B002BF8
:10069000BED0424609F1004343EC102B1DB0BDE82B
:1006A000F08FDDE91A8302F2334223F4801343EA28
:1006B0000259D9E7DFF86891D6E76FF000494FF0AB
:1006C000FF38D1E7179B5A1C17925B78302BF9D073
:1006D000002BD6D0012300E00023002704930A2238
:1006E000179BCDE905770A9317980578A5F1300394
:1006F000D9B2092924D90122484905F05FF9002817
:100700002DD000202A46059D83460346652A01D048
:10071000452A13D11DB9049A024389D00025179C9C
:10072000621C179262782B2A6CD02D2A70D04FF061
:10073000000CA2F13001092978D91794002696E01F
:100740000599013008291790D7BF069902FB073792
:1007500002FB01330693059B01330593C4E7179B06
:100760005A1C17925A78059BA3B383461D46A2F1E3
:100770003003092B12D90123C8E7179B01305A1CFB
:1007800017925A78302AF8D0A2F13103082B00F2E0
:10079000EF8483460020179B05460A93303A00F108
:1007A000010311D09B4400EB050C2B460A219C450C
:1007B00012D12B180135082B054419DC06990A23A0
:1007C00003FB012306930023179A1846511C179127
:1007D0005278CCE70598D5E7082B03F1010303DC39
:1007E000069E4E430696E2E7102BD8BF4F43DEE746
:1007F0000F2BDCBF0A2303FB0727E4E74FF0000BB6
:10080000012388E74FF0000CA21C1792A27890E712
:100810004FF0010CF8E700BF4866000026660000B4
:100820000000F07F179A511C17915278302AF9D0A6
:10083000A2F13101082981D8303A0792179A0C9217
:10084000179A561C17965278A2F1300EBEF1090F76
:1008500038D90C99761A082E44F61F6603DC0799DE
:100860008E42A8BF0E46BCF1000F00D07642002D8C
:100870004FD1049908437FF404AF002B7FF4D8AE26
:10088000692A29D026DC492A26D04E2A7FF4D0AE08
:100890009B4917A805F0DEF900283FF4C9AE179B65
:1008A0001B78282B2FD11AAA964917A805F0E6F92C
:1008B000052828D11B9BDDF8688043F0FF4949F4E7
:1008C000E009DEE6079E0A2101FB0621A1F13002C4
:1008D0000792B5E76E2AD9E78B4917A805F0BAF950
:1008E00000283FF4A5AE179B17A88849013B179332
:1008F00005F0B0F910B9179B01331793DFF81C927C
:100900004FF00008BDE6824800F04EFC59EC108B19
:10091000B7E6A6EB0B0306982C460C93059B002B21
:1009200008BF2B46102D0593A8BF102402F0E8F84D
:10093000092D8046894613DC0C9B002B3FF4A1AEA9
:100940000C9B78DD162B45DC7249424601EBC30156
:100950004B46D1E9000104F02FFB8046894690E622
:100960006C4B03EBC40353E9122304F025FB8046D0
:100970008946384602F0C4F802460B4640464946CE
:1009800001F082FF0F2D80468946D5DD2C1B0C9B84
:100990001C44002C25DC00F0A280644214F00F02FD
:1009A0000AD05C4B4046494603EBC203D3E900231F
:1009B00004F02CFC80468946241100F090801F2C06
:1009C00040F3B28022234FF000084FF00009CAF82C
:1009D000003056E6C5F125030C9A934219DA2C1B18
:1009E000144414F00F030AD04A49424601EBC301F4
:1009F0004B46D1E9000104F0DFFA8046894634F025
:100A00000F046CD0B4F59A7F41DD2223CAF8003080
:100A100074E7C5F10F053F4C42464B4604EBC50158
:100A2000D1E9000104F0C8FA0C9B5D1B04EBC5047E
:100A3000D4E900238FE71633A8DBABEB0602354B76
:100A40004046494603EBC203D3E9002304F0DEFB32
:100A500083E7002306932223DFF8C0904FF00008BD
:100A6000CAF800301899504603F0FCFB069950462E
:100A700003F0F8FB0599504603F0F4FB109950463B
:100A800003F0F0FB0799504603F0ECFBF9E5002377
:100A9000241140464946204F0493012C22DC0BB11F
:100AA00080468946049BA9F154791B49424601EBD3
:100AB000C3014B46D1E9000104F07EFA174B0A4608
:100AC00080460B4016498B429FD8A1F580118B427E
:100AD00086BFDFF850904FF0FF3802F154790023C1
:100AE00004934CE0E20704D5D7E9002304F064FA4C
:100AF0000123049A6410083701320492CDE700BF45
:100B00003166000034660000286600002B66000095
:100B10000D64000010680000E86700000000F07F2E
:100B20000000A07CFFFFEF7F14F010034046494611
:100B3000AA4F18BF6A2304930023E20704D5D7E91C
:100B4000002304F039FA0123641007F10807F4D1F7
:100B50000BB180468946049B43B1C9F30A5249460A
:100B6000C2F16B03002B4EDC6A23049300220023A6
:100B70004046494602F094F800287FF423AF069BD4
:100B80005046059A00932B460A9903F0D5FB109026
:100B900000283FF43AAF0C9BABEB060B002BB4BF25
:100BA0005B46002311930C9B23EAE3731593002308
:100BB00007930593109B5046596803F013FB06906A
:100BC00000283FF448AF109B0C301A6903F10C0168
:100BD0000232920005F0B6F91AAA19A9504649EC5A
:100BE000108BCDE90A8903F083FE189000283FF4AA
:100BF00032AF0121504603F0E9FB03460590D0B91E
:100C00000023059327E71F2B0EDD342B4FF0000840
:100C1000DBBF4FF0FF33C2F14B024FF05C799340E2
:100C2000D8BF03EA01099FE74FF0FF3202FA03F34E
:100C300003EA080898E7199C1A9A002CA9BF119B8F
:100C4000159BE718159EB8BF1E1B049BB8BF119FCC
:100C5000E41A634B1444C2F13602013C9C4280F218
:100C6000B0801B1B01251F2BA2EB0302CDBFC4F1DB
:100C70007F449D40002404F57F04C2BF04F57B44FB
:100C8000E23405FA04F407EB020B049B16445F45BB
:100C90001E443B46A8BF5B46B342A8BF3346002B69
:100CA000C2BFABEB030BF61AFF1A119B002B16DD2C
:100CB0001A460599504603F049FC059000289FD03C
:100CC0000146189A504603F097FB0E9000283FF417
:100CD000C2AE1899504603F0C5FA0E9B1893BBF1AB
:100CE000000F71DC0C9B002B08DD159A504606990D
:100CF00003F02CFC069000283FF4ABAE002E08DD7C
:100D000032460699504603F07BFC069000283FF4DB
:100D1000A0AE002F08DD3A460599504603F070FC5E
:100D2000059000283FF497AE069A5046189903F0B4
:100D3000D3FC079000283FF48EAEC36805990E934C
:100D40000023C36005F0A5F900284BDA0E9B53EA97
:100D5000080340F0BD80C9F31303002B40F0B880B6
:100D600029F000431B0D1B05B3F1D66F40F2B08094
:100D7000079B5B6923B9079B1B69012B40F3A88084
:100D800001220799504603F03BFC0599079005F0B6
:100D900080F9002840F39C8029F00043049A1B0D41
:100DA0001B05002A7AD0B3F1D66F6ED8B3F15C7F01
:100DB00046D84FF000084FF000092223CAF800304F
:100DC00050E6002401255EE75A461899504603F084
:100DD00017FC1890002885D13DE600BF6066000032
:100DE00002FCFFFFCB4640F0A4800E9AC9F3130328
:100DF000002A41D09C4A934259D1049B42467BB978
:100E0000B8F1FF3F40F08A80984B99453FF423AEFC
:100E1000974BDDF8108009EA030303F5801921E6FA
:100E2000934B09EA0303B3F1D46F17D918F1010109
:100E30001CD18E4A91453FF40EAE03F580198046D1
:100E40008C4B40464946002204F0B6F8884B804659
:100E500089460B40002B7FF405AEAEE71E0D4FF028
:100E6000FF31C6F16B06B1408845E6D0002C5ED05C
:100E700014EA0B0FE4D01EE0002B4AD1B8F1000FAA
:100E80008AD064B314EA0B0F2BE0A3F580134FF064
:100E9000FF386FEA13596FEA0959D1E7A3F58013B8
:100EA0004FF0FF386FEA13596FEA0959DAE59CB140
:100EB00014EA090F0CD040464946049A04F034FE67
:100EC000DDE90A0153EC102B01F0DEFC8046894677
:100ED000049B002BB4D1C5E515EA080FEAE718EA30
:100EE000050FF5D0049A4046494604F01DFEDDE9A1
:100EF0000A0153EC102B01F0C5FC0022002304462C
:100F00000D4601F0CDFE00287FF453AFA046A94660
:100F1000DEE7002CB6D115EA080FE2E724B114EAA7
:100F2000090F3FF49FADC6E718EA050FF9E72A421B
:100F3000A0E70599079805F0C7F800224FF0804315
:100F400055EC104B2046294601F0BEFE00286DD01E
:100F50000E9B002B78D1B8F1000F56D1C9F31303C3
:100F6000002B59D10022444B2046294601F0A2FE15
:100F7000002858D1204629460022404B04F01CF896
:100F800004460D4605F1004308940993384B0BEADB
:100F900003031493149A3A4B9A42DDE9086740F030
:100FA000A880ABF1547949EC108B03F02DFCDDE9FE
:100FB000082351EC100B03F0FFFF42464B4601F0B3
:100FC00063FC0B462A4980462E4A194091425BD960
:100FD0000B9A264B9A4203D10A9B01333FF43BAD57
:100FE000DFF888904FF0FF381899504603F03AF92F
:100FF0000699504603F036F90599504603F032F948
:101000000799504603F02EF9D4E5B8F1010F03D14A
:10101000B9F1000F3FF4CDAE0024174D9FED0E7BCC
:101020008DED087BB2E70024144DABE7134B20464F
:101030002946002203F0C0FF0E9B04460D46002BFC
:10104000A0D0CDE90845A1E79FED057B55EC174BF6
:101050008DED087B9AE700BF000000000000F0BFA4
:10106000000000000000F03FFFFF0F00FFFFEF7FD8
:101070000000F07F000050390000F03F0000E03F2A
:101080000000E07FFFFF9F7C03F15479049B4E46F4
:10109000002BA9D129F00043149A1B0D1B059A427D
:1010A000A2D12046294604F0CFF9C9F3130601F076
:1010B00073FD0B4602462946204646EA080601F023
:1010C000E1FB0E9B04460D461E434BD02EA3D3E9F5
:1010D000002301F0EFFD00287FF4C4AC2046294630
:1010E0002BA3D3E9002301F003FE00283FF47CAFDB
:1010F000B8E4049B13B3149BB3F1D46F1ED82046FD
:10110000294625A3D3E9002301F0DEFD90B129464D
:10111000204604F079F9012838BF012001F0F0FCE5
:101120000E9B04460D46D3B901F100431290139370
:10113000DDE9126707F1D663149A9F1A9DED0A0B39
:1011400003F062FB3046394653EC102B03F034FFBA
:10115000DDE90A2301F098FB8046894696E7CDE950
:101160001245E5E70EA3D3E9002301F0A3FDBCE798
:10117000652A3FF443AB452A3FF440AB0123FFF718
:1011800078BB00BFAFF300809535A094FFFFDF3F31
:1011900035E5AF350000E03F0000C0FFFFFFDF4155
:1011A0009535A094FFFFCF3F9FED010B704700BF27
:1011B000000000000000F87F0348044B834202D087
:1011C000034B03B118477047E8110020E8110020D5
:1011D00000000000064B0749C91A891048BF0131B9
:1011E000491003D0044B0BB101481847704700BFAA
:1011F000E8110020E81100200000000010B5064CA6
:10120000237843B9FFF7D8FF044B13B10448AFF379
:1012100000800123237010BDAC1E002000000000E0
:10122000F069000008B5054B1BB105490548AFF34F
:101230000080BDE80840FFF7CDBF00BF0000000000
:10124000E8110020F0690000A3F5803A704700BF64
:10125000174B002B08BF134B9D46FFF7F5FF0021EE
:101260008B460F461348144A121A04F027FC0E4B03
:10127000002B00D098470D4B002B00D09847002042
:10128000002104000D000D48002802D00C48AFF3E7
:10129000008001F099FD2000290004F02CF901F0F4
:1012A00081FD00BF000008000000000000000000F9
:1012B00000100020E8110020181F0020000000008E
:1012C0000000000030B589B0104D01AC0FCD0FC447
:1012D00095E8070084E807004FF4A0220C4B0D4C62
:1012E000C3F834264FF4C022C3F82C26142220461B
:1012F000C3F81C2601A901F0A1F900234FF41652EE
:101300001946204601F0F2F809B030BD2463000010
:1013100000C0035000C005502DE9F0410646DFF83B
:101320005C80134C134D404604F093F9242803D1FC
:10133000012328702360F6E723685A2B01DD002380
:10134000F8E7002BEFDD0D28EDD05A1C0A282260AB
:10135000E854E8D1002729460748AF5401F058FD6A
:10136000294630462268FEF727FF2760DBE700BFEB
:1013700000120020AD1E0020206300000000065077
:1013800008B504F097F804F0A0F8FFF79BFF0148B8
:10139000FFF7C2FF0412002070B586B002460B4B67
:1013A00001AC03F11006254618685968083303C5D7
:1013B000B3422C46F7D11B782B7002F118030DEBCA
:1013C000030212F8140C06B070BD00BF40630000A9
:1013D000F8B5002406460D46044FAC4200DBF8BDCC
:1013E000315D384604F03BF90134F6E70000065061
:1013F00010B5234C00F0CCFC00F0BAFE236F23F0B4
:10140000070343F00303236704F0F6F81D4B0020A5
:101410009B6A9B075EBF01221B4B9A62D4F8203166
:1014200023F0030343F00203C4F82031D4F824313D
:1014300023F0070343F00203C4F82431D4F8403109
:1014400023F0030343F00203C4F84031D4F86031C1
:1014500023F0030343F00203C4F86031D4F84032B0
:1014600023F0030343F00203C4F84032D4F80032FF
:1014700023F0070343F00203C4F8003210BD00BF9D
:101480000080005000C0005000E0005008B501F09E
:1014900025F801280ED1104B04205A6E4FF48023FA
:1014A0000E49520358BF0E4A4B6601F510410862BF
:1014B00058BF536601F0C4F904F05FF801F050F929
:1014C00001F0A8F901F06EF9FFF792FF01F058F969
:1014D000BDE8084004F048B800800050009000507B
:1014E00000A000500348044A0449121A921004F064
:1014F00049B800BFEC6B0000EC6B0000181F002027
:1015000008B500F02FF8FFF7EDFF124B12498B42A0
:1015100012D30020114B12498B4218D3FFF798FECB
:10152000186850F82240586840F822400132986804
:101530008242F5D30C33EAE70022F8E71C6844F84E
:10154000220001325C68A242F8D30833E4E70022AB
:10155000F8E700BFF8690000046A0000046A0000B0
:10156000046A000010B54FF400414FF0FF30124BF9
:10157000124A9A60D3F8882042F47002C3F8882097
:101580000F4A916601F1884101F5005210664FF64D
:10159000DF7050660220C3F8D000BFF34F8FBFF357
:1015A0006F8F08244FF440330648C0F88041D36061
:1015B00004600B6110BD00BF00ED00E00000000002
:1015C0000090005000E100E0014B1868704700BF38
:1015D00004100020084B1B6F03F00703022B04D0FC
:1015E000032B05D0012B05D0FEE7044B186870478C
:1015F000034BFBE7034870470080005004100020B5
:101600000C100020002D310108B5FFF7E3FF054B5A
:101610001B6FC3F303330133B0FBF3F0024B1860CD
:1016200008BD00BF00800050001000200048704737
:1016300000B4C404014B1868704700BF0C100020B0
:10164000054B1860054B1B6F03F00703032B01D1FB
:10165000FFF7DABF704700BF0C1000200080005079
:1016600000487047002D3101014B1868704700BFDA
:10167000081000200346054A0549106803448B42C0
:101680008CBF4FF0FF301360704700BF1010002078
:1016900000800020044BD3F88420D206FBD4D3F87A
:1016A0008400C0F3811070470040005038B5104BE3
:1016B0000546D3F820310C4603F00303022B0BD070
:1016C000032B0DD0012B0FD1FFF77EFF052305B1B2
:1016D000286004B1236038BDFFF7ACFF0323F6E7B1
:1016E000FFF7BEFF0223F2E701230020EFE700BF70
:1016F00000800050F7B50027114B0197D3F88041C7
:10170000064604F00304012C0D4608D0022C12D02A
:1017100041F2AC410B4803F048FF3C4604E0394637
:1017200001A8FFF7C3FF0F240EB1019B336005B181
:101730002C6003B0F0BDFFF793FF0190F4E700BF0A
:1017400000800050B864000038B51A4B0546D3F845
:1017500024010C4600F00700062821D8DFE800F03D
:10176000280410181C0C1400FFF72EFF052305B1E8
:10177000286004B1236038BDFFF726FF0623F6E793
:10178000FFF758FF0323F2E7FFF754FF0423EEE7C8
:10179000FFF766FF0223EAE703F0FFFE0723E6E711
:1017A000054841F2770103F000FF00231846DEE709
:1017B0000123DCE700800050B864000038B5104B0E
:1017C0000546D3F840310C4603F00303022B0BD03F
:1017D000032B0DD0012B0FD103F0E1FE092305B13E
:1017E000286004B1236038BDFFF73EFF0823F6E709
:1017F00003F0D8FE0B23F2E701230020EFE700BF40
:101800000080005038B5164B0546D3F800020C4650
:1018100000F00700042819D8DFE800F020030B0FC0
:10182000130003F0BCFE092305B1286004B1236056
:1018300038BDFFF719FF0823F6E703F0B3FE0B23CB
:10184000F2E7FFF7E1FE0E23800AEDE7054841F2DB
:10185000765103F0AAFE00231846E5E70123E3E7EB
:1018600000800050B864000038B5124B0546D3F82C
:1018700040320C4603F00303022B0BD0032B0DD098
:10188000012B0FD103F08BFE092305B1286004B1B1
:10189000236038BDFFF7E8FE0823F6E703F082FE79
:1018A0000B23F2E7044841F2FC4103F07EFE0023E3
:1018B0001846EAE700800050B864000038B5104BC5
:1018C0000546D3F860310C4603F00303022B0BD01E
:1018D000032B0DD0012B0FD103F061FE092305B1BD
:1018E000286004B1236038BDFFF7BEFE0823F6E789
:1018F00003F058FE0B23F2E701230020EFE700BFBF
:101900000080005010B40F4C0B46D4F8204204F075
:101910000304012C0ED0022C10D008B1002101606C
:101920000BB100221A6041F2A70107485DF8044B91
:1019300003F03BBE5DF8044BFFF7B8BE5DF8044B07
:10194000FFF73CBF00800050B864000010B5B0F550
:10195000207F34D009D8B0F5007F2AD003D898B1C1
:10196000B0F5C07F10D0002421E0B0F5607FFAD13F
:10197000154BD3F88030C3F301149B0617D5032C05
:1019800015D040F2BE210FE00F4B1C6F230B13F05C
:101990000E0FC4F303340AD0072C08D00F2C06D046
:1019A000032C04D040F2AD21084803F0FEFD601C7A
:1019B00010BD054BD3F89040C4F30464F7E7024B25
:1019C0001C6FC4F38024F2E700800050B86400006C
:1019D00010B54FF400320E4B04469A660020FFF714
:1019E000B5FF604341F671320A4C0B4BA04294BFE5
:1019F00000200120D969DA639A6822F4401242EA91
:101A000000529A60CA0344BF0022DA6310BD00BFCF
:101A100000900050005A62020000035070B5460961
:101A200004460D460ED140F25D310D4803F0BDFD78
:101A3000334604F01F047DB103F580530122A24018
:101A40001A6070BD012E05D0064B074A022E18BF42
:101A50001346EEE7054BECE703F50053EEE700BF56
:101A6000B8640000688000506082005064800050BC
:101A700030B585B0002380280446019374D02AD85D
:101A8000002877D0A0F12004412C32D8412C30D846
:101A9000DFE804F070737073888888887373923FEE
:101AA000A8653F7373732F2F2F2F2F2F8D577373AD
:101AB00073B2AD732F2F2F2F2F2F2F2F2F2F2F2FAD
:101AC0002F702F707070882F2F2F2F2F2F2F2F2FC9
:101AD0002F2F2F2F7070B0F5806F63D024D8B0F502
:101AE000007F55D00BD8B0F5807F6AD0B0F5C07FAD
:101AF00040D040F2CA41434803F057FD37E0B0F50B
:101B0000607F45D0F5D8B0F5207F36D0B0F5407F66
:101B1000EFD1FFF779FD04464FF42070FFF716FF71
:101B2000B4FBF0F4640831E0B0F5C06F5AD00DD8C2
:101B3000B0F5A06F3BD0B0F5B06F3DD0B0F5906F71
:101B4000D7D1002101A8FFF7FFFD10E0B0F5E06F4D
:101B50004DD0B0F5F06F4FD0B0F5D06FC9D10021A6
:101B600001A8FFF74FFE02E0FFF734FD0190019856
:101B700005B030BDFFF748FDF8E7FFF745FD044627
:101B80004FF42070FFF7E2FEB4FBF0F40194EEE7AF
:101B9000FFF720FD05462046FFF7D8FEB5FBF0F520
:101BA0000195E4E7002101A8FFF780FDDFE70021B0
:101BB00001A8FFF7A7FEDAE7002101A8FFF79AFDC9
:101BC000D5E702934FF0E0231B695B0705D5FFF7CC
:101BD0001BFD0290029B0193C9E703A902A8FFF72E
:101BE000EDFDF7E7002101A8FFF7E8FDBFE70021C1
:101BF00001A8FFF739FEBAE7002101A8FFF75EFE52
:101C0000B5E700BFB864000008B58020FFF730FFDB
:101C1000034B98429EBF4FF48032024B1A6708BDB7
:101C2000005A620200A000501FB50023B0F5807F6B
:101C300001937FD027D8382800F09C800BD8243817
:101C4000092810D809280ED8DFE800F06F6F6F6FF1
:101C50000D0D670D3685522867D007D83D283AD03C
:101C60003E2800F08C8040F2B25152E08028FAD138
:101C7000454B1B6F03F00703013B032B47D8DFE8FD
:101C800003F044413F75B0F5D06F64D019D8B0F57A
:101C9000A06F6FD00AD8B0F5806F46D0B0F5906FC6
:101CA000E1D1002001A9FFF74FFD3AE0B0F5B06F98
:101CB00033D0B0F5C06FD6D1002001A9FFF77EFD6B
:101CC0002FE0B0F5006FECD00AD8B0F5E06F56D039
:101CD000B0F5F06FC7D1002001A9FFF7EFFD20E0BC
:101CE000B0F5086FBFD1284BD3F8003103F00303E0
:101CF000022B35D0032B37D0012B39D1FFF79AFCBB
:101D0000032300E0052301930BE00223FBE740F2ED
:101D1000FF411E4803F049FC03E0002001A9FFF742
:101D2000E9FC019805B05DF804FB002001A9FFF76C
:101D3000BDFCF6E702934FF0E0231B695B0705D576
:101D4000FFF762FC0C230393039BDCE703A902A8C3
:101D5000FFF734FDF8E7002001A9FFF753FDE0E7A6
:101D6000FFF782FC0823CEE703F017FC0723CAE73E
:101D70000123C8E7002001A9FFF7C4FDD1E7002037
:101D800001A9FFF771FDCCE700800050B8640000A6
:101D90004FF40022034B5A66012203F580439A62F6
:101DA000704700BF00900050F8B5036804460F2B41
:101DB00004D940F6EF316C4803F0F7FB63680F2B52
:101DC00004D940F6F131684803F0EFFBA3680F2B0C
:101DD00004D940F6F331644803F0E7FB237B0F2B73
:101DE00004D940F6F531604803F0DFFB637B0F2B2D
:101DF00004D940F6F7315C4803F0D7FBA37B3F2BB7
:101E000004D940F6F931584803F0CFFBE37B3F2B70
:101E100004D940F6FB31544803F0C7FB2369032B78
:101E200004D940F6FD31504803F0BFFB6369032B32
:101E300004D940F6FF314C4803F0B7FBE369012BAE
:101E400004D940F60141484803F0AFFB8020FFF77A
:101E5000EBFE032800F087804FF40022434B022161
:101E60005A6645F60E03424AC2F88030414B9962E9
:101E7000012103F580539962936DD903FCD4D4E911
:101E800000131B0543EA0163E17B94F820500B43E8
:101E9000217BE77E43EA0143617B6D0143EA013325
:101EA000A17B43EA811313619169D4E904031B0602
:101EB00043EA806301F000410B43A17E94F82300C4
:101EC0000B43217E43EA0143617E43EA0123936190
:101ED000136AE66923F00D0394F8221043EA87039E
:101EE000002E2DD11362966A94F8213045EA03132F
:101EF00026F033052B4343F0010393621E4D1C4B28
:101F00009A6D35EA0202FBD102221A4DAA621A65C5
:101F10009A6D5200FCD41A69A56822F4700242EA54
:101F200005521A614FF00042124B9A6119B9022210
:101F300003F580539A6278B90122104B9A620BE044
:101F4000334343F008031362936A23F033030343DC
:101F50002B4343EA4103936294F824301BB1044BB2
:101F6000074AC3F88020F8BDB86400000090005014
:101F700000C0005000D000500300014000E00050BD
:101F8000F1A7FFFF014B93F900007047111F0020DC
:101F900010B543680446072B04D940F65C612A4813
:101FA00003F003FBA368032B04D940F65E612648C7
:101FB00003F0FBFA2378032B04D940F65F61224833
:101FC00003F0F3FA94F90130002B04DA4FF4666160
:101FD0001D4803F0EAFA4FF480011C4A6378516609
:101FE0004FF4D151022002F5B832516218494F2BFB
:101FF00048604FF0010028BF4F2301F58051486031
:102000001169C903FCD4217843EA01235361D4E95F
:1020100001131B0143EA0123617B0B43217B43EA4C
:1020200041039360E37BA17B1B0143EA4113617C85
:102030000B43217C43EA41035360A37C13B16FF44B
:10204000D153536210BD00BFB8640000009000502F
:1020500000100250014B1880704700BFDE110020B5
:10206000014B1880704700BFDC11002010B5B0F59F
:10207000207F65D00ED8B0F5007F4FD003D800B3D5
:10208000B0F5C07F1DD040F23E31BDE8104034486D
:1020900003F08BBAB0F5607FF5D14C1E012C06D948
:1020A000042904D04FF448712D4803F07EFA2D4ADC
:1020B000D2F8803023F0300343EA0413C2F88030B2
:1020C00010BD4C1E012C0AD9102903D8264BCB4039
:1020D000DB0704D440F2F221214803F066FA03F052
:1020E00078FA03F084FA4FF48031204B1D4A1967C7
:1020F000136F23F4704343EA04331367FFF784FA42
:102100000446FFF7C7FAC0F10201204603F069FA5E
:1021100000F03EF8BDE81040FFF776BD4C1E1F2CC6
:1021200004D940F232310E4803F03FFA0D4AD2F89A
:10213000903023F0F85343EA0463C2F89030BFE7CD
:102140004C1E012C04D94FF44E71054803F02DFAB2
:10215000044A136F23F4806343EA84231367AFE7D1
:10216000B864000000800050100101000090005091
:1021700008B50121022000F027F803F02AFA03F045
:1021800036FA4FF48032014B1A6708BD00900050B8
:1021900008B54FF4C070FFF76BFCBDE80840044978
:1021A000884294BF012102214FF42070FFF75EBFE7
:1021B00080F0FA02034A0179D36E23F030030B4317
:1021C000D366704700400050F8B50446244BD3F85E
:1021D0008420D006FBD4D3F88430C3F381139C420F
:1021E0003CD0FFF7F7F9012C05460BD11D4B984267
:1021F00004D940F2E9711C4803F0D7F901212846BF
:1022000003F0EFF903F00DFA4FF00072174B074699
:102210005A66204603F00CFA4FF48063104E621E9B
:1022200093403367736E9A0103D4D6F884309B06CB
:102230000AD5384603F0F9F9022C0FD12846BDE83B
:10224000F840002103F0CDB9D6F884309906E9D5DD
:102250004FF4FF61044803F0A8F9E3E7F8BD00BFBD
:1022600000400050005A6202EA6400000060005022
:1022700010B50C4608B9FFF7ADF9074B21461B789E
:102280003BB1064B984204D80120BDE81040FFF74F
:102290009BBF0220F9E700BF121F0020005A620214
:1022A00038B54FF00042264B26495A6601224A6053
:1022B0004AF6CD3103F50B235D6C1964154030BB34
:1022C0009968C9070BD4002401221F4B5A6015B12D
:1022D0001E4B1F4A1A6403F0ACF9204638BD1A4958
:1022E0008A601C4AD96ACC0705D4904201D10724E0
:1022F000EAE70130F6E79042E5D1F8E70132DC6A1F
:1023000014F0080406D08A42F8D10724DFE700223F
:102310001049F4E78A42F8D020220B4B0B495A624D
:102320000122A3F580539A6023460A4A486A800630
:1023300003D49342E9D00133F8E79342C7D1E4E7ED
:1023400000900050005009500060095000400950B2
:102350003254FFFF40420F0038B54FF00042174B98
:10236000174C5A66012203F50C235A604AF6CD3306
:10237000656C2364437893401343124AD363C37854
:102380008178A2689B0043EA011322F07402134390
:10239000A3600279837943EA022323614279C379F6
:1023A00043EA022363610078FFF77AFFEB0744BF3B
:1023B000054B236403F03DF9012038BD0090005027
:1023C00000400950004000503254FFFF38B5032848
:1023D00004460D4605D80B4B33F81030CB40DB07D5
:1023E00004D440F22D41084803F0DFF830220123E5
:1023F000544341F2100204F1A044AB4004F57034A0
:10240000A35038BD846500001C65000038B5032862
:1024100004460D4605D80B4B33F81030CB40DB0794
:1024200004D440F2FE31084803F0BFF83022012303
:10243000544342F2100204F1A044AB4004F570345E
:10244000A35038BD846500001C650000F8B5032862
:1024500004460D4616461F4605D81C4B33F810306F
:10246000CB40DB0704D440F26B11194803F09DF810
:1024700026B129462046CFB1FFF7A8FF04EB44035D
:10248000072D4FF00F014FEA031312D8A80006FAE8
:1024900000F281400F48184403F0CCF8AEB9294649
:1024A000204677B1BDE8F840FFF790BFFFF7AEFFD9
:1024B000E4E7A5F10800800006FA00F28140064832
:1024C000E9E7BDE8F840FFF7A1BFF8BD846500006B
:1024D0005065000004C003500CC00350024B186844
:1024E000C0F30740704700BF0080E00FF8B5074613
:1024F0000C461D4616464AB940F24711314803F0D2
:1025000054F824B1402D09D1062328E021B94FF415
:102510002070FFF7ADFA0446402D42D0402D09D877
:102520007DB1202D17D04FF4C871BDE8F840254883
:1025300003F03BB8602DF6D1B6EB940F3CD80423E2
:102540000DE0B6EB141F04D940F27B111D4803F0D7
:102550002CF8102303E0B6EBD40F1CD808235E43FD
:10256000730803EB4413B3FBF6F3174E203BB6EBB3
:10257000C30F4FEAC30404D24FF4D471114803F0DF
:1025800014F8BB68344023F06003BB60BB681D4394
:10259000BD60FC61F8BD4FF4C0710A4803F005F856
:1025A000DCE70623B4FBF3F3B342ADD240F285116E
:1025B000044802F0FAFFA7E74FF4C571014802F0A2
:1025C000F4FFBCE78C650000F8FF7F0010B5174BE7
:1025D0000446984208D003F58043984204D040F264
:1025E0006D41134802F0E1FF012204F580535A6067
:1025F00040F6AA6341F20502636100230D49A3601E
:10260000E365E26004F500522361E361E3649164F1
:102610000649A3658C4203D123650023636502E06C
:1026200005498C42F8D00123536010BD00C005500D
:102630008C650000FFFF01000000065070B5444BA0
:10264000044698420D4608D003F58043984204D0D2
:1026500040F212313F4802F0A8FF2046FFF7B6FFD4
:10266000012304F580567360AB7C1BB1A36843F073
:102670008043A360EB7C5BB1354A2B7D944245D10E
:10268000A2F51032C2F88C31E36D43F08003E365AC
:102690002A8A6B7B20461343EA891343E3602B7B32
:1026A000D5E90112FFF722FF6B7D1BB1A36843F44C
:1026B0008033A360AB7D1BB1A36843F40043A360E8
:1026C000EB7D2A7E1B07120502F4E00203F0E043D3
:1026D0001343A365697E1E4A8B1E012B1E4B1FD818
:1026E00094421BD002F5804294420CBF01224FF06D
:1026F000FF3203EB4213022041F21C62032998507F
:1027000020D10423F3652B78636170BD134A944292
:1027100004BFA2F52032C2F89C31B5E70022E8E7F9
:1027200094420DD00D4A94420CBF01224FF0FF326B
:1027300003EB4213022042F21C6201299850DFE7AA
:102740000022F5E7042204F50053DA65DBE700BF59
:1027500000C005508C65000000C00350000006500A
:1027600007B56B46054A1068516803C36846FFF712
:10277000F3FD002003B05DF804FB00BFBD65000061
:1027800013B50024064A6846536F43F001035367AC
:1027900000948DF80440FFF70DFD204602B010BDF7
:1027A0000040005030B58BB06C46174D0FCD0FC4B4
:1027B0000FCD0FC495E8030084E80300134BD3F852
:1027C0004C2112031CD5A3F5FE431C884FF6FF7362
:1027D0009C4208BF8C248DF81940FFF7D3FB20449E
:1027E00080F308008DF818000948FEF729FF6846B5
:1027F000FFF7DAFA3220FFF733FC00200BB030BDD0
:10280000D3F85041E4B2E6E7C86500000080E00F6D
:1028100000F0490230B587B0084D01AC0FCD0FC4B0
:102820002B6801A8236019238DF80530FFF7B0FB52
:102830003220FFF70FFC002007B030BDF06500002C
:1028400010B56FF0040350210A480B4C13F0800FB1
:1028500003F1010207D12344402A83F800131346F1
:10286000F4D1002010BD03F00F03043B034419769C
:102870001346EBE700ED00E000E100E081F00041ED
:1028800002E000BF83F0004330B54FEA41044FEA55
:10289000430594EA050F08BF90EA020F1FBF54EAF0
:1028A000000C55EA020C7FEA645C7FEA655C00F08C
:1028B000E2804FEA5454D4EB5555B8BF6D420CDD5D
:1028C0002C4480EA020281EA030382EA000083EAE0
:1028D000010180EA020281EA0303362D88BF30BD80
:1028E00011F0004F4FEA01314FF4801C4CEA1131D6
:1028F00002D0404261EB410113F0004F4FEA033335
:102900004CEA133302D0524263EB430394EA050FBF
:1029100000F0A780A4F10104D5F1200E0DDB02FA2E
:102920000EFC22FA05F2801841F1000103FA0EF2C2
:10293000801843FA05F359410EE0A5F120050EF188
:10294000200E012A03FA0EFC28BF4CF0020C43FAB9
:1029500005F3C01851EBE37101F0004507D54FF0C6
:10296000000EDCF1000C7EEB00006EEB0101B1F516
:10297000801F1BD3B1F5001F0CD349085FEA30005C
:102980004FEA3C0C04F101044FEA445212F5800F67
:1029900080F09A80BCF1004F08BF5FEA500C50F104
:1029A000000041EB045141EA050130BD5FEA4C0CE7
:1029B000404141EB0101013C28BFB1F5801FE9D244
:1029C00091F0000F04BF01460020B1FA81F308BF67
:1029D0002033A3F10B03B3F120020CDA0C3208DD33
:1029E00002F1140CC2F10C0201FA0CF021FA02F10E
:1029F0000CE002F11402D8BFC2F1200C01FA02F17E
:102A000020FA0CFCDCBF41EA0C019040E41AA2BFA2
:102A100001EB0451294330BD6FEA04041F3C1CDA6A
:102A20000C340EDC04F11404C4F1200220FA04F08A
:102A300001FA02F340EA030021FA04F345EA030134
:102A400030BDC4F10C04C4F1200220FA02F001FAF6
:102A500004F340EA0300294630BD21FA04F0294678
:102A600030BD94F0000F83F4801306BF81F4801111
:102A70000134013D4EE77FEA645C18BF7FEA655C84
:102A800029D094EA050F08BF90EA020F05D054EA56
:102A9000000C04BF1946104630BD91EA030F1EBF5B
:102AA0000021002030BD5FEA545C05D1400049415F
:102AB00028BF41F0004130BD14F580043CBF01F552
:102AC000801130BD01F0004545F0FE4141F4700138
:102AD0004FF0000030BD7FEA645C1ABF1946104613
:102AE0007FEA655C1CBF0B46024650EA013406BF14
:102AF00052EA033591EA030F41F4002130BD00BFD3
:102B000090F0000F04BF0021704730B54FF480648F
:102B100004F132044FF000054FF0000150E700BF10
:102B200090F0000F04BF0021704730B54FF480646F
:102B300004F1320410F0004548BF40424FF000015C
:102B40003EE700BF42004FEAE2014FEA31014FEA9F
:102B500002701FBF12F07F4393F07F4F81F06051EE
:102B6000704732F07F4208BF704793F07F4F04BF39
:102B700041F40021704730B54FF4607401F0004516
:102B800021F000411CE700BF50EA010208BF704776
:102B900030B54FF000050AE050EA010208BF704767
:102BA00030B511F0004502D5404261EB41014FF4D0
:102BB000806404F132045FEA915C3FF4D8AE4FF0D8
:102BC00003025FEADC0C18BF03325FEADC0C18BFBB
:102BD000033202EBDC02C2F1200300FA03FC20FA0C
:102BE00002F001FA03FE40EA0E0021FA02F1144459
:102BF000BDE600BF4FF0FF3C06E000BF4FF0010C08
:102C000002E000BF4FF0010C4DF804CD4FEA410C3B
:102C10007FEA6C5C4FEA430C18BF7FEA6C5C1BD008
:102C200001B050EA410C0CBF52EA430C91EA030F89
:102C300002BF90EA020F0020704710F1000F91EAE6
:102C4000030F58BF994208BF90422CBFD8176FEAB4
:102C5000E37040F0010070474FEA410C7FEA6C5C82
:102C600002D150EA013C07D14FEA430C7FEA6C5C89
:102C7000D6D152EA033CD3D05DF8040B704700BFB5
:102C80008446104662468C461946634600E000BF03
:102C900001B5FFF7B7FF002848BF10F1000F01BDD5
:102CA0004DF808EDFFF7F4FF0CBF012000205DF8A0
:102CB00008FB00BF4DF808EDFFF7EAFF34BF012025
:102CC00000205DF808FB00BF4DF808EDFFF7E0FFBE
:102CD00094BF012000205DF808FB00BF4DF808ED0F
:102CE000FFF7CEFF94BF012000205DF808FB00BF76
:102CF0004DF808EDFFF7C4FF34BF012000205DF858
:102D000008FB00BF4FEA4102B2F1E04324BFB3F534
:102D1000001CDCF1FE5C0DD901F0004C4FEAC00252
:102D20004CEA5070B2F1004F40EB830008BF20F036
:102D30000100704711F0804F21D113F13872BCBFF0
:102D400001F00040704741F480114FEA5252C2F145
:102D50001802C2F1200C10FA0CF320FA02F018BF8E
:102D600040F001004FEAC1234FEAD32303FA0CFCE1
:102D700040EA0C0023FA02F34FEA4303CCE77FEA70
:102D8000625307D150EA01331EBF4FF0FE4040F4BA
:102D90004000704701F0004040F0FE4040F4000069
:102DA000704700BF08B5064B044613B10021AFF3CE
:102DB0000080044B1B6803B19847204602F0F9FBE2
:102DC000000000009C1E002070B50D4D00260D4C2B
:102DD000641BA410A64209D10B4D00260B4C03F036
:102DE0007FFA641BA410A64205D170BD55F8043BC0
:102DF00001369847EEE755F8043B01369847F2E76D
:102E0000E0110020E0110020E0110020E41100207A
:102E10000FB407B5064904AB086853F8042B816862
:102E2000019300F007F803B05DF804EB04B07047BD
:102E3000141000202DE9F04F0D469DB01446984621
:102E4000064618B1036A0BB900F01AFB6B6ED9077E
:102E500005D4AB899A0502D4A86D02F0ABFFAB890B
:102E60001B0701D52B699BB92946304600F0FAF8BB
:102E700070B16B6EDC0704D54FF0FF301DB0BDE8BC
:102E8000F08FAB899805F7D4A86D02F094FFF3E7B3
:102E90000023CDF80C804FF00109DFF8B4810993CD
:102EA00020238DF8293030238DF82A3023469A4686
:102EB00013F8012B0AB1252AF9D1BAEB040B0BD078
:102EC0005B4622462946304602F0FDFB013000F009
:102ED000A780099A5A4409929AF80030002B00F012
:102EE0009F8000234FF0FF320AF1010A04930793F9
:102EF0008DF853301A93CDE90523544605225448E2
:102F000014F8011B02F04CFD049AD8B9D10644BF55
:102F100020238DF85330130744BF2B238DF85330F3
:102F20009AF800302A2B15D0079A544600204FF00B
:102F30000A0C214611F8013B303B092B4BD9B0B1AB
:102F4000079214E0A0EB0803A24609FA03F3134327
:102F50000493D2E7039B191D1B68002B0391BBBF91
:102F60005B4242F0020207930793B8BF04922378B2
:102F70002E2B0AD163782A2B32D1039B02341A1DDF
:102F80001B6843EAE37303920593DFF8D4A003229E
:102F90002178504602F004FD38B1A0EB0A0040222F
:102FA000049B013482401343049314F8011B06224E
:102FB00028488DF8281002F0F3FC00283FD0264B5B
:102FC0001BBB039B073323F0070308330393099BC1
:102FD0003B4409936AE70CFB02320C460120A8E748
:102FE000002301344FF00A0C19460593204610F8CF
:102FF000012B303A092A03D9002BC6D00591C4E72A
:103000000CFB012104460123F0E703AB2A4604A987
:1030100030460093114BAFF300800746781CD6D1A1
:103020006B6ED90705D4AB899A0502D4A86D02F05E
:10303000C2FEAB895B063FF51FAF09981EE703ABE5
:103040002A4604A930460093044B00F061F8E4E7F7
:10305000046600000E66000000000000C756000075
:103060000A66000038B5294B05460C46186818B1A9
:10307000036A0BB900F004FAB4F90C30190722D432
:10308000DA0607D409222A6043F040034FF0FF30EC
:10309000A38133E0580712D5616B41B104F14403B9
:1030A000994202D0284600F04BFA00236363A389BB
:1030B00023F02403A3810023636023692360A38991
:1030C00043F00803A38123694BB9A38903F4207358
:1030D000B3F5007F03D02146284602F092FEB4F9F2
:1030E0000C3013F001020AD00022A2606269524241
:1030F000A261226942B913F08000C5D138BD990799
:1031000058BF6269A260F4E70020F7E714100020BE
:103110002DE9FF470F7E914680460C46782F9A4650
:103120000C9E01F1430207D8622F0AD8002F00F04D
:10313000DD80582F00F0C38004F1420684F842700D
:103140003AE0A7F16303152BF6D801A151F823F05B
:10315000A9310000BD3100003931000039310000D3
:103160003931000039310000BD3100003931000033
:10317000393100003931000039310000D33200000C
:103180004B3200008B320000393100003931000031
:10319000F5320000393100004B32000039310000B7
:1031A000393100009332000033681A1D1B68326009
:1031B00004F1420684F842300123A8E03168236814
:1031C000081D30601E0601D50D6803E05D06FBD5C5
:1031D000B1F90050002D616878DA2D200029A16036
:1031E00084F843002DDA6D425D480A231646B5FB8C
:1031F000F3F103FB1157C75D06F8017D2F460D461D
:10320000BB42F4D9082B0BD12368DF0708D523690B
:1032100061689942DEBF302306F8013C06F1FF36B3
:10322000921B22614B4603AA21464046CDF800A0DE
:1032300002F099FA01306FD14FF0FF3004B0BDE8D1
:10324000F08723F004032360CDE721683368080684
:1032500053F8045B02D4490648BFADB26F2F336008
:103260003F4814BF0A230823002184F843106668EE
:10327000002EA660BADB216821F004012160002D38
:10328000B4D1002EB2D11646BCE7236843F0200328
:10329000236078273348236884F845701F06316817
:1032A00051F8045B02D45F0648BFADB23160D90764
:1032B00044BF43F0200323601DB11023D4E7284806
:1032C000E9E7236823F020032360F6E724480A2374
:1032D000CDE733682568181D616930602E061B68CC
:1032E00001D5196002E06806FBD519800023164657
:1032F000236197E7336800211A1D32601E686268F7
:10330000304602F04DFB08B1801B606063682361AA
:10331000002384F8433085E7236932464946404616
:10332000D047013088D023689B0714D4E068039B02
:103330009842B8BF184681E70123324649464046C5
:10334000D04701303FF478AF0135E36803995B1A49
:10335000AB42F1DCEAE7002504F11906F5E700BF0E
:103360004063000015660000002310B5044683602A
:10337000818119464366C28108228361C0E9003316
:10338000C0E904335C3002F099FB0D4B24626362A8
:103390000C4BA3620C4BE3620C4B23630C4B9C4223
:1033A00006D003F16802944202D0D0339C4205D18A
:1033B00004F15800BDE8104002F0FBBC10BD00BF96
:1033C000F1590000175A00004F5A0000735A0000CC
:1033D000641D0020024A0349034802F051BB00BFAC
:1033E00064100020515900001810002041680C4B57
:1033F000994210B5044601D002F0AAFAA168094B1F
:10340000994202D0204602F0A3FAE168064B9942A5
:1034100004D02046BDE8104002F09ABA10BD00BFAB
:10342000641D0020CC1D0020341E002010B50B4B65
:1034300004210B4C0B4A20461A600022FFF794FF30
:1034400004F1680001220921FFF78EFF04F1D0008A
:1034500002221221BDE81040FFF786BF9C1E00200B
:10346000641D0020D5330000014802F0A3BC00BF5A
:10347000141F0020014802F09EBC00BF141F002052
:1034800010B50446FFF7F0FF236A1BB1BDE81040FA
:10349000FFF7F0BF044B2362044B1B68002BF5D1F0
:1034A000FFF7C4FFF2E700BFED3300009C1E0020D1
:1034B0000EB430B59CB04FF401721FACADF81420BF
:1034C000029054F8045B069002F08AFA0B4B2A46ED
:1034D000039002A90B93002307900F9314934FF6C8
:1034E000FF730748ADF8163023460068019400F0DA
:1034F0007FFA1CB0BDE8304003B07047135A00009B
:103500001410002038B50446064D08461146002226
:103510002A601A4602F05BF8431C02D12B6803B103
:10352000236038BDA01E00200A4601460248034B16
:103530000068FDF735B800BF14100020701000209F
:1035400038B50546002941D051F8043C0C1F002B2A
:10355000B8BFE41800F03AFE1D4A136833B963603F
:1035600014602846BDE8384000F036BEA34208D9B2
:10357000206821188B4201BF19685B680918216017
:10358000EDE71A465B680BB1A342FAD911685018EF
:10359000A0420BD120680144501811608342E0D151
:1035A00018685B68084453601060DAE702D90C239E
:1035B0002B60D6E7206821188B4202BF19685B6830
:1035C0000918636008BF21605460CAE738BD00BFB6
:1035D000A81E00202DE9F04F85B08A469046029340
:1035E0000B6801909C1CA14614F8010B3028FAD0FE
:1035F000A9EB0303A3F1020B02F005FB054600282B
:1036000066D101229E49484602F0D8F907460028B3
:1036100065D199F80100264602F0F5FA002860D03D
:1036200023461878994601333028FAD002F0EBFA95
:10363000B0FA80F54FF0010B6D094A46164601328B
:10364000307802F0E0FA0028F8D101228C493046A7
:1036500002F0B4F900283ED144B9741C2246164643
:103660000132307802F0CFFA0028F8D1A41BA7006D
:10367000337803F0DF03502B3DD173782B2B32D0FE
:103680002D2B33D0711C0024087802F0BCFA431EA5
:10369000DBB2182B2FD8A0F1100211F8010F02F0A5
:1036A000B2FA00F1FF3C0A235FFA8CFCBCF1180F60
:1036B0001ED904B152421744CAF80010EDB1BBF153
:1036C000000F0CBF06250025284605B0BDE8F08F89
:1036D00000252C46B1E7002CC8D12746C8E74E4646
:1036E0002F460125C4E70024B11CCDE70124FBE7E8
:1036F00003FB0200CFE73146DEE7A6EB09032946CC
:10370000013B072B0ADC019800F06CFD044640B930
:103710005C4B0246E4215C4800F0E2FC01315B10A6
:10372000EFE700F1140A002355469B46B14537D315
:1037300045F804BBA5EB0A055846AD1025616D019F
:1037400002F058FCD8F800602D1AB54254DDAD1BCC
:103750002046294602F00DFD814678B16B1E4FF0E0
:103760000109591103F01F025AF8211009FA02F257
:103770000A4203D04B4536DC4FF002092F4429465C
:10378000204602F0EFF9D8F80830BB4242DA214671
:10379000019800F067FD00230E9AA325136093E7BC
:1037A00016F8012D2E2A12D0202B04D145F804BB87
:1037B0004FF0000B5B463078039302F024FA039B32
:1037C00000F00F00984004334BEA000BAEE7B14520
:1037D000EAD801222A493046039302F0EFF8039B0E
:1037E0000028E1D1A2E7A91E204602F0C2FC002871
:1037F000C2D04FF00309C1E709DA751B21460198D1
:103800002A467F1B00F0FCFE044600F1140A4FF02C
:103810000009B8E7D8F80450BD426FDDED1BAE4299
:1038200034DCD8F80C30022B22D0032B24D0012B0F
:1038300015D1AE4213D1012E0BD1D8F80430622538
:10384000029A136001232361CAF800300E9B1C60AA
:103850003AE7711E204602F08CFC0028EDD121468B
:10386000019800F0FFFC00230E9A502513602BE70F
:103870000F9B002BF3D1E0E70F9B002BDDD1EEE790
:103880002666000088660000996600006F1EB9F188
:10389000000F30D127B13946204602F06AFC81463C
:1038A0007A11012307F01F0729465AF822202046E3
:1038B000BB40761B0225134218BF49F0020902F0F3
:1038C00051F9D8F80470B9F1000F47D0D8F80C308E
:1038D000022B15D0032B17D0012B09D119F0020FA1
:1038E00006D0DAF8003049EA030919F0010F0ED1C9
:1038F00045F0100532E04FF00109D1E70125E2E77C
:103900000F9BC3F101030F930F9B002BF0D0D4F852
:1039100010B004F114034FF0000C4FEA8B0A03EBD4
:103920008B01184653F8042BB2F1FF3F1BD0013234
:103930000260022D04F114033CD1D8F80020013AB2
:10394000B24209D17111012206F01F0653F821304D
:1039500002FA06F61E423AD145F020050E9B1C6085
:10396000029B1F60B0E6994243F804CCD9D8A36803
:103970009B4517DB61680198013100F033FC8146FB
:1039800018B91A4B02468421C5E6226904F10C01DC
:103990000C300232920002F0D5FA21464C460198D2
:1039A00000F060FC23695A1C04EB830322610122AE
:1039B0005A61BEE722695A450BDD0121204602F01B
:1039C000D1F80137D8F80830BB42FFF6E0AE012548
:1039D000C2E716F01F06FAD05344C6F1200653F88A
:1039E000040C02F007FBB042E7DBF0E7886600005A
:1039F0002DE9F0470C46ADF5227D002106460DF17C
:103A00000408A64F0093CDF81881CDE94411A449CC
:103A1000A091A449A1911378002B00F05A81F95C80
:103A2000551C11F0080119D06368002B0FDD2368C5
:103A30001A78BA5C120701D42A46ECE7459A01339A
:103A40000132236045926268013A6260ECE7A19B13
:103A50002146304698470028E9D0EDE7252B12D0C3
:103A600099466368002B40F39480226813784B4595
:103A700040F02F8163680132013B22606360459B07
:103A800001334593D8E74191439153782A2B04BFE2
:103A90001023951C4FF00A0208BF4193A94619F85C
:103AA000011BA1F13003092B1ED9DFF8FCA1032271
:103AB000504601F075FF38B1A0EB0A000123419A8E
:103AC0004D4683401343419315F8013B782B06D8AC
:103AD000572B10D8252BC3D056D8002B64D00323E6
:103AE00047930A2342936AE0439B4D4602FB03112E
:103AF00030394391D2E7A3F15802202AEFD801A12F
:103B000051F822F0F33B0000DF3A0000DF3A0000FA
:103B1000153C0000DF3A0000DF3A0000DF3A000009
:103B2000DF3A0000DF3A0000DF3A0000DF3A000031
:103B30002B3C0000113C00008F3B00008F3B00003D
:103B40008F3B0000DF3A0000053C0000DF3A000038
:103B5000DF3A0000DF3A0000DF3A00003B3C0000A3
:103B60000D3C0000AF3B0000DF3A0000DF3A0000F0
:103B7000373C0000DF3A0000113C0000DF3A000053
:103B8000DF3A0000F33B0000453B022BA7D805239A
:103B900014E0A19B21463046984700283FF465AFCA
:103BA0004498002840F08D804FF0FF308DE0419B1D
:103BB00043F40873419310234293042347936368AB
:103BC000002B49DD419B590604D423681A78BA5C5E
:103BD000120748D4479B022B57DC6B46224641A96B
:103BE000304600F07BF8012873D002287FF424AF20
:103BF000D6E7419A42F40072419210226E2B429213
:103C000002D9DAE7002342930323D7E70823D3E757
:103C10000A22F3E72946404602F0B3F9419B0546E4
:103C200043F0400341930123C8E7419B43F0400325
:103C300041930023C2E70223C0E74198C3063FF542
:103C4000FBAE009BC007459A03F1040100911B687D
:103C50004CBF1A801A60EFE6A19B21463046984778
:103C60000028AFD09CE7459A013245926268013A3C
:103C7000002A626002DD01332360A6E7A19B214692
:103C8000304698470028A0D08AE7042B0EDC6B460C
:103C9000224641A9304600F07BF8A4E7D96800002D
:103CA0007B5E0000F15E00000A6600000A4B002BFC
:103CB0003FF4C2AE6B46224641A93046AFF30080C6
:103CC00091E7A3895B063FF56FAF0DF5227DBDE857
:103CD000F0874498F9E700BF000000002DE9F843A1
:103CE00015468A6880460C4632B98A69002A14BF94
:103CF0004FF0FF3201228A6022680027DFF88C90A3
:103D0000D1065FBF1A68111D19601668A06988B1D5
:103D1000012807D12B681A7863699B5C53B9002F7F
:103D200031D022E0022820D12B681B7819F803300B
:103D30001B071AD423680137DA065EBF2B681B788D
:103D400006F8013B2A686B680132013B2A60A268D1
:103D50006B60013AA26042B1002BD7DCD4F880310D
:103D60002946404698470028D0D0236813F0100316
:103D700005D1E2680132E260A26902B133702369C1
:103D800000203B442361BDE8F88300BFD9680000F0
:103D90002DE9F04F984687B0784B0C468246164680
:103DA00027464FF0000B93E8070003AB83E80700BA
:103DB000734BA169734A032908BF1A46A36801928D
:103DC0005A1EB2F5AE7F89BF6FF4AE754FF0000991
:103DD00003EB050940F25D1388BFA36057F81C3B55
:103DE00043F450633D462360316803AB02220978F7
:103DF00053F82B0001F0D4FD002840D0BBF1010F97
:103E000012D162682AB92268082142F40072616006
:103E10002260226822F4A0622260A268511EA16082
:103E2000DAB94FF0020BDFE7BBF1020F06D0A26850
:103E3000511EA1608AB94FF0010BD5E7226802F448
:103E4000C061B1F5007F1FD142F480721021226061
:103E5000A2686160511EA160B2B13268511C31602C
:103E6000127805F8012B7268013A002A726006DCAC
:103E7000D4F88021314650469047002874D10BF188
:103E8000010BBBF1030FAFD163680BB90A23636069
:103E900063684FF0000B3C496069C91A02F071F881
:103EA000A368226873B33168606991F800C010F8A4
:103EB0000C0038B3BCF1300F16D1100514D50BF13E
:103EC000010BB9F1000F03D0013309F1FF39A360F1
:103ED0007368013B002B73600DDD33680133336081
:103EE000A368013BA360DBE722F4106222600B7839
:103EF00005F8013BECE7D4F880313146504698474D
:103F00000028EDD02368D9050DD5BD4209D905F1AA
:103F1000FF3915F8011CD4F87C3132464D46504625
:103F20009847BD4228D0226812F0100213D12A709F
:103F3000394663685046019EB047D8F80030216882
:103F40001A1D11F0200FC8F800201B680FD0186050
:103F5000E3680133E360ED1B236900205D442B44DB
:103F6000236107B0BDE8F08F4FF0000BCAE7CA0726
:103F70004CBF18801860EBE70120F2E71C670000D7
:103F80005B6200005F6200001067000038B500232C
:103F9000054D044608462B6001F008FB431C02D186
:103FA0002B6803B1236038BDA01E002070B50F4EF2
:103FB0000C460546316811B900F0F2FC306021462C
:103FC000284600F0EDFC431C03D14FF0FF3420469F
:103FD00070BDC41C24F00304A042F8D0211A284666
:103FE00000F0DEFC0130F2D1EFE700BFA41E00209C
:103FF0002DE9F041CD1C064625F0030508350C2DB2
:1040000038BF0C25002D01DBA94204D90C233360F5
:104010000020BDE8F081314F00F0D8F83B681C4625
:1040200044BB29463046FFF7C1FF431C044650D12C
:104030003C682146002941D1002C44D023683046F9
:1040400004EB030800F0ACFC80453CD1216830460D
:104050006D1A2946FFF7AAFF013034D023682B449C
:1040600023603B68002B36D05A68A24229D1002237
:104070005A600EE02268521B1DD40B2A16D9611912
:10408000A342256018BF5960636808BF3960625158
:104090004B60304600F0A0F804F10B00231D20F027
:1040A0000700C21AB5D01B1AA350B2E7A342626838
:1040B000DED13A60EDE723466468B1E70C46496813
:1040C000B8E71346CEE70C233046336000F084F89F
:1040D0009EE70560DDE75B60FFDE00BFA81E0020F5
:1040E0001FB514461A46094B05461B68D86854B9D3
:1040F000074B1C4600910749CDE901342B4600F0DF
:1041000053F802F0AEF8044BF4E700BF141000209F
:104110000D640000356700002867000038B50023F3
:10412000064D0446084611462B6001F043FA431C35
:1041300002D12B6803B1236038BD00BFA01E002050
:1041400038B50023054D044608462B6001F036FAC9
:10415000431C02D12B6803B1236038BDA01E002090
:1041600038B50446064D0846114600222A601A4614
:1041700001F029FA431C02D12B6803B1236038BD3A
:10418000A01E002038B50446064D08461146002200
:104190002A601A4601F019FA431C02D12B6803B1B8
:1041A000236038BDA01E00200EB403B503AB01464A
:1041B000054853F8042B00680193FEF73BFE02B05C
:1041C0005DF804EB03B0704714100020014801F0C3
:1041D000F1BD00BF131F0020014801F0ECBD00BF7E
:1041E000131F002070B5C66904460D4676B910202D
:1041F00000F0DCFC0246E06120B9184B6B21184846
:10420000FFF76EFFC0E901660660C660E669F36805
:1042100083B1E369DB6853F82500B8B90121204672
:1042200001FA05F6721D920001F0CCFF60B1C0E901
:1042300001560EE021220421204601F0C3FFE3696C
:10424000F060DB68002BE4D1002070BD026843F809
:1042500025200023C0E90333F7E700BF64670000AF
:104260007B67000070B5C66905460C4676B910201C
:1042700000F09CFC0246E86120B9094B8F210948F7
:10428000FFF72EFFC0E901660660C6603CB1EB692E
:104290006268DB6853F82210216043F8224070BD49
:1042A000646700007B6700002DE9F04101F1140C08
:1042B00007460C461E460D690020DCF80030013030
:1042C00099B2854202FB01614FEA13464FEA11435E
:1042D00089B202FB063301EB03414FEA13464CF867
:1042E000041BEADC0EB3A368AB4219DC61683846F4
:1042F0000131FFF777FF804628B902460C4BBA21FF
:104300000C48FFF7EDFE226904F10C010C3002327B
:10431000920001F017FE214644463846FFF7A2FFFF
:1043200004EB850301355E6125612046BDE8F0811F
:10433000886600007B6700002DE9F84315461F469C
:10434000092208330C460646002193FBF2F30122B2
:104350009A4209DB3046FFF745FF40B90246194B48
:10436000D3211948FFF7BCFE52000131F0E7089B4A
:10437000092D43614FF00103036116DD04F10909C2
:104380002C44C84618F8013B01460A223046303B0F
:10439000FFF78AFFA045F5D1A5F108044C442D1B79
:1043A0006319BB4204DBBDE8F8830A340925F6E74C
:1043B00014F8013B01460A223046303BFFF774FFF8
:1043C000EEE700BF886600007B67000010B50C4672
:1043D0000121FFF707FF024628B9054B40F24511BE
:1043E0000448FFF77DFE01234461036110BD00BF57
:1043F000886600007B6700002DE9F04F14460A69CB
:104400000F4685B023699A42A2BF23460C461F4639
:10441000D4F810A0A368D7F8109061680AEB0906D9
:10442000B342B8BF0131FFF7DDFE30B90246454B5C
:104430004FF4B1714448FFF753FE00F11405002218
:1044400005EB86082B46434521D307F1140104F1FF
:10445000140204F1150702EB8A0201EB89030293AF
:10446000131B153B23F003030433BA4238BF042364
:104470000193029B03918B420CD8002E03DD58F868
:10448000043D002B5BD0066105B0BDE8F08F43F81A
:10449000042BD8E7B1F800A0BAF1000F24D004F142
:1044A000140EA9464FF0000C5EF8047BD9F80030DA
:1044B0001FFA87FB72459BB20AFB0B334FEA174B7F
:1044C000D9F8007063444FEA174C0AFB0BC707EB9F
:1044D00013479BB24FEA174C43EA074349F8043BA2
:1044E000E2D8019B45F803C0039B0431B3F8029066
:1044F000B9F1000F21D02B6804F1140CAE464FF037
:10450000000ABCF800B09BB2BEF8027009FB0B7742
:10451000574443EA07434EF8043B5CF8043B4FEA38
:10452000134ABEF80030624509FB0A3303EB174318
:104530004FEA134AE5D8019FEB51043599E7013E54
:104540009BE700BF886600007B6700002DE9F84309
:10455000154612F0030207460E4607D0013A254CD5
:10456000002354F82220FFF79FFE0646AD103DD0F1
:10457000FC697CB9102000F019FB0246F86128B9EB
:104580001D4B40F2B3111D48FFF7AAFDC0E90144DD
:104590000460C460D7F81C80D8F808404CB940F2D9
:1045A00071213846FFF712FF00230446C8F80800BF
:1045B00003604FF00009EB070AD531462246384622
:1045C000FFF71AFF8046314638464646FFF74AFE57
:1045D0006D100BD0206838B9224621463846FFF7C7
:1045E0000BFF2060C0F800900446E4E73046BDE8C9
:1045F000F88300BFD8670000646700007B67000095
:104600002DE9F0470C46074691464FEA621A2369A6
:10461000496803EB6218A36808F10106B3420BDB9B
:104620003846FFF7DFFD054648B90246284B4FF4F0
:10463000EF712848FFF754FD01315B00EEE70023DE
:1046400000F1140100F110021846534533DB2AEA49
:10465000EA7A04F11403206919F01F0901EB8A01B9
:1046600003EB800C2BD0C9F1200E8A46002218687B
:1046700000FA09F010434AF8040B53F8042B9C4548
:1046800022FA0EF2F3D8ACEB040304F11500153B4B
:1046900023F003030433844538BF0423CA500AB10E
:1046A00008F10206013E384621462E61FFF7DAFD89
:1046B0002846BDE8F087013342F8040FC5E7043906
:1046C00053F8042B9C4541F8042FF9D8EAE700BFC2
:1046D000886600007B6700002DE9F74F8946064693
:1046E00011461446484601F0D4FC051E12D1294655
:1046F0003046FFF777FD024628B9414B40F237219B
:104700004048FFF7EDFC0123C0E90435104603B033
:10471000BDE8F08FBCBF4B46A1463046B8BF01256F
:10472000D9F80410B4BF1C460025FFF75BFD024614
:1047300018B9334B40F24521E2E7D9F8107004F183
:10474000140E266900F1140BC56009F1140509F176
:1047500010030EEB860605EB8708D9464FF0000CD8
:104760000193019B5EF8040B53F804AF7645019367
:104770001FFA8AF3194683B24FEA1040A1EB0303F4
:10478000C0EB1A40634400EB23409BB24FEA204C3D
:1047900043EA004349F8043BE3D8331B1534153B87
:1047A00023F003030433A64238BF04231D445B44B3
:1047B0002C461E4644450ED308F10301491B033D18
:1047C00021F00301A84538BF00210B4453F8041D14
:1047D00099B117619AE754F8041BE6461FFA81FC69
:1047E000080C7144F44489B200EB2C4041EA0041CA
:1047F0004FEA204C46F8041BDCE7013FE6E700BF28
:10480000886600007B67000082B0114B8DED000BC5
:10481000019A1340A3F15073002B08DC5B42B3F103
:10482000A07F4FEA235204DA4FF400231341002201
:1048300008E0A2F114031E2BD6BF4FF00042012264
:10484000DA4000231946104641EC100B02B07047C5
:104850000000F07F2DE9F041066900F1140808EB33
:10486000860656F8042C371F104601F0C3FBC0F132
:1048700020030A280B601D4916DCC0F10B0CB8455B
:1048800000F1150022FA0CF302FA00F043EA0105E8
:1048900034BF56F8083C002323FA0CF303431C46AC
:1048A00045EC104BBDE8F081B8453ABFA6F10807CA
:1048B00056F8083C00230B3814D0C0F12001824088
:1048C000474523FA01F403FA00F342EA040242F0F6
:1048D0007F558CBF57F8042C002245F44015CA4080
:1048E0001343DCE742EA0105D9E700BF0000F03FCF
:1048F0002DE9F7430F460121164659EC108BFFF7BF
:1049000071FC044630B90246234B40F20F31234874
:10491000FFF7E6FBC9F30A55C9F313030DB143F4DE
:1049200080130193B8F1000323D06846009301F08F
:1049300083FBDDE90012D0B1C0F1200302FA03F3DA
:10494000C2400B4301926361019B002BA3610CBF2A
:10495000012202222261A5B1A5F233450544C0F12E
:1049600035003D603060204603B0BDE8F0836161F2
:10497000EAE701A801F060FB019B2030012263619E
:10498000E8E7A0F2324004EB82033860186901F0D6
:1049900031FBC0EB4210E5E7886600007B67000052
:1049A00038B50023054D044608462B60FCF762FE2F
:1049B000431C02D12B6803B1236038BDA01E002028
:1049C000014B1868704700BF14100020242B2DE9FC
:1049D000F0478646904601D8012B06D1FFF7F0FF3D
:1049E000162303600020BDE8F0870D4635482A46AF
:1049F00015F8014B065D16F00806F8D12D2C24D1D0
:104A00002C780126951C2BBB302C30D00A2306F1C4
:104A1000004C00220CF1FF3C1046BCFBF3F903FBF9
:104A200019CAA4F13007092F28D83C46A34234DD27
:104A3000571C07D081452DD301D1A2452ADB00FBAD
:104A40000340012215F8014BEBE72B2C04BF2C7817
:104A5000951CD8E7102BDAD1302CD8D12A7802F067
:104A6000DF02582AD3D16C7810230235CFE72B7898
:104A700003F0DF03582BF6D00823C8E7A4F1410761
:104A8000192F01D8373CD1E7A4F16107192F04D8B9
:104A9000573CCBE74FF0FF32D4E7531C08D1222319
:104AA0006046CEF80030B8F1000F9CD0691E06E0D9
:104AB00006B14042B8F1000F95D0002AF6D1C8F8EF
:104AC000001090E7D96800002DE9F04386460D46B6
:104AD000354E284615F8014B375D17F00807F8D119
:104AE0002D2C26D12C780127851C3BBB302C32D0B5
:104AF0000A234FF0FF380026B8FBF3F803FB08F950
:104B000030466FEA0909A4F1300CBCF1090F29D82D
:104B10006446A34237DDB6F1FF3F07D080452FD36F
:104B200001D1A1452CDB00FB0340012615F8014B08
:104B3000E9E72B2C04BF2C78851CD6E7102BD8D1A5
:104B4000302CD6D1287800F0DF005828D1D16C78ED
:104B500010230235CDE72B7803F0DF03582BF6D076
:104B60000823C6E7A4F1410CBCF1190F01D8373C6A
:104B7000CFE7A4F1610CBCF1190F04D8573CC8E78A
:104B80004FF0FF36D2E7731C06D122233046CEF811
:104B9000003032B9BDE8F08307B14042002AF9D0B5
:104BA00006B1691E1160F5E7D9680000024B0146A5
:104BB0001868FFF71DBA00BF14100020024B014611
:104BC000186801F055BB00BF1410002038B5002351
:104BD000064D0446084611462B6000F0F1FC431CCC
:104BE00002D12B6803B1236038BD00BFA01E002096
:104BF000F8B555EC114B2DED028B57EC106B00F016
:104C000065F80022002320462946B0EE408AF0EEE7
:104C1000608AFEF745F830B122462B4630463946C9
:104C200000F0DCFB30B1B0EE480AF0EE680ABDECF3
:104C3000028BF8BDFFF7C4FE002200232121016092
:104C40001046194600F0E2FA41EC180BB0EE480AA3
:104C5000F0EE680ABDEC028BF8BD00BF08B553EC5E
:104C6000102BC3F30A509C46A0F2FF3113290EDC2F
:104C7000002903F0004022DB134B002243FA01F12C
:104C800001EA0C0141EA000343EC102B08BD332973
:104C900009DDB1F5806FF9D110461946FDF7F4FD35
:104CA00041EC100B08BD6146A0F213434FF0FF3CEE
:104CB0002CFA03F322EA030041EC100B08BD00229A
:104CC000034643EC102B08BD0000F0FF53EC112B02
:104CD0002DE9F04123F0004652EA060551EC100B95
:104CE00029D021F00048AE4DA84524D85542AD4FFB
:104CF0009446154346EAD575BD421CD8B0458E464C
:104D00001C46024601F000451FDCC0F208818445C4
:104D100000F2058100F00F81394223D1B8F1000F74
:104D200015D10028034640F311819F485B000138EC
:104D3000002BFBDC1AE000F03FF902460B4600F0C6
:104D400065FA41EC100BBDE8F08139420AD14FEA17
:104D5000C823002B40F3C68094485B000138002B29
:104D6000FBDC03E04FEA2850A0F2FF308D4B2340DC
:104D700063B9002E40F0A280BCF1000F63467BDDDA
:104D8000894F5B00013F002BFBDC02E03715A7F2E7
:104D9000FF37864B984273DBCEF3130343F4801343
:104DA00082498F425ADBC4F31304A2EB0C0144F492
:104DB0008014C01B0CD128E00139A2EB0C0E1CD4CE
:104DC0004FEADE7301384FEA4E0203EB41031AD07B
:104DD0006245A3EB04014FEAD276EDD30029A2EBA2
:104DE0000C0E0ADB51EA0E03EAD1ED0F704B03EB18
:104DF000C50393ED000BBDE8F081013806EB4303DA
:104E00004FEA4202E4D1A2EB0C011C1B624538BF01
:104E100004F1FF34002CA4BF0A46234653EA0201E2
:104E200005D1E2E7D10F013F520001EB4303B3F597
:104E3000801FF7DB5D498F4249DAC91B142971DCF9
:104E400007F21E40CA4043FA01F183400D4343EA92
:104E500002012B460A4643EC102B74E7C91B1F299D
:104E60001CDC07F21E442CFA04F48E400CFA01FC00
:104E70003443A2EB0C019CE74C4B98423EDA4A4F7C
:104E80004A49091A1F2913DC00F21E4322FA03F3D0
:104E900008FA01F88A4043EA080381E7454CC01B41
:104EA000A4EB07040CFA04F45AD04FF0000C8FE77F
:104EB000404B1B1A02FA03F3002271E7F302002BA6
:104EC00024DD3A4F5B00013F002BFBDC61E7A3F5DB
:104ED000801307F2FF3710462B4343EA075141EC9A
:104EE000100B30E72F4B2340002B43D1002E46D12F
:104EF000BCF1000F63462D483FF742AFCEF31303DA
:104F00000B24294F152143F48013ACE7274FB842F7
:104F1000B6DBCEF31303254F43F4801343E741EC94
:104F2000100B10E71F290CDC07F21E4022FA01F1DA
:104F3000834019438DE71E4B03EB157393ED000B74
:104F400001E71C49C91B43FA01F182E7154B2340D5
:104F50004BB9CEB9BCF1000F63461ADD12480FE71A
:104F60001C1B114656E737150B230F481521A7F2D6
:104F7000FF378BE737150D48A7F2FF370CE7F30231
:104F80000A48002B9DDCC4E7F302002B05DD064830
:104F900097E7054F0448152176E7044FFAE700BF6D
:104FA000FFFFEF7F0000F07FEDFBFFFF02FCFFFF44
:104FB000E0690000E2FBFFFF70B54FF0FF0C4CF41E
:104FC000E06C1CEA11541DBF1CEA135594EA0C0F47
:104FD00095EA0C0F00F0DEF82C4481EA030621EA82
:104FE0004C5123EA4C5350EA013518BF52EA0335BD
:104FF00041F4801143F4801338D0A0FB02CE4FF06F
:105000000005E1FB02E506F00042E0FB03E54FF09E
:105010000006E1FB03569CF0000F18BF4EF0010E96
:10502000A4F1FF04B6F5007F64F5407404D25FEA92
:105030004E0E6D4146EB060642EAC62141EA555145
:105040004FEAC52040EA5E504FEACE2EB4F1FD0C87
:1050500088BFBCF5E06F1ED8BEF1004F08BF5FEA05
:10506000500E50F1000041EB045170BD06F00046B7
:1050700046EA010140EA020081EA0301B4EB5C0464
:10508000C2BFD4EB0C0541EA045170BD41F480115C
:105090004FF0000E013C00F3AB8014F1360FDEBF81
:1050A000002001F0004170BDC4F10004203C35DA5D
:1050B0000C341BDC04F11404C4F1200500FA05F3E0
:1050C00020FA04F001FA05F240EA020001F0004281
:1050D00021F0004110EBD37021FA04F642EB0601F7
:1050E0005EEA430E08BF20EAD37070BDC4F10C0421
:1050F000C4F1200500FA04F320FA05F001FA04F2E5
:1051000040EA020001F0004110EBD37041F10001D0
:105110005EEA430E08BF20EAD37070BDC4F12005DB
:1051200000FA05F24EEA020E20FA04F301FA05F243
:1051300043EA020321FA04F001F0004121FA04F2EB
:1051400020EA020000EBD3705EEA430E08BF20EABB
:10515000D37070BD94F0000F0FD101F000464000F5
:1051600041EB010111F4801F08BF013CF7D041EA77
:10517000060195F0000F18BF704703F0004652007B
:1051800043EB030313F4801F08BF013DF7D043EA4C
:105190000603704794EA0C0F0CEA135518BF95EA02
:1051A0000C0F0CD050EA410618BF52EA4306D1D189
:1051B00081EA030101F000414FF0000070BD50EAA8
:1051C000410606BF1046194652EA430619D094EA32
:1051D0000C0F02D150EA013613D195EA0C0F05D11C
:1051E00052EA03361CBF104619460AD181EA030170
:1051F00001F0004141F0FE4141F470014FF0000028
:1052000070BD41F0FE4141F4780170BD70B54FF0C2
:10521000FF0C4CF4E06C1CEA11541DBF1CEA135542
:1052200094EA0C0F95EA0C0F00F0A7F8A4EB050424
:1052300081EA030E52EA03354FEA013100F088801B
:105240004FEA03334FF0805545EA131343EA1263E4
:105250004FEA022245EA111545EA10654FEA002699
:105260000EF000419D4208BF964244F1FD0404F552
:10527000407402D25B084FEA3202B61A65EB0305AE
:105280005B084FEA32024FF480104FF4002CB6EB6B
:10529000020E75EB030E22BFB61A754640EA0C00EB
:1052A0005B084FEA3202B6EB020E75EB030E22BF2B
:1052B000B61A754640EA5C005B084FEA3202B6EB6C
:1052C000020E75EB030E22BFB61A754640EA9C002B
:1052D0005B084FEA3202B6EB020E75EB030E22BFFB
:1052E000B61A754640EADC0055EA060E18D04FEAB9
:1052F000051545EA16754FEA06164FEAC30343EA59
:1053000052734FEAC2025FEA1C1CC0D111F4801F25
:105310000BD141EA00014FF000004FF0004CB6E71E
:1053200011F4801F04BF01430020B4F1FD0C88BFBD
:10533000BCF5E06F3FF6AFAEB5EB030C04BFB6EBC8
:10534000020C5FEA500C50F1000041EB045170BDBB
:105350000EF0004E4EEA113114EB5C04C2BFD4EBE8
:105360000C0541EA045170BD41F480114FF0000E6C
:10537000013C90E645EA060E8DE60CEA135594EAE8
:105380000C0F08BF95EA0C0F3FF43BAF94EA0C0FEB
:105390000AD150EA01347FF434AF95EA0C0F7FF460
:1053A00025AF104619462CE795EA0C0F06D152EAB4
:1053B00003353FF4FDAE1046194622E750EA410698
:1053C00018BF52EA43067FF4C5AE50EA41047FF4A9
:1053D0000DAF52EA43057FF4EBAE12E74FEA410C02
:1053E0007FEA6C5C02D150EA013C0AD14FEA430CDF
:1053F0007FEA6C5C02D152EA033C02D14FF000001C
:1054000070474FF0010070474A0011D212F50012A8
:1054100011D20DD56FF47873B3EB62520ED44FEA0C
:10542000C12343F0004343EA505323FA02F070478C
:105430004FF00000704750EA013002D14FF0FF30CA
:1054400070474FF00000704738B500220023044633
:105450000D46FDF72FFC28B920462946BDE8384007
:1054600000F00AB8204605F1004100F005F840427E
:1054700061EB410138BD00BFD0B500220B4B0646A1
:105480000F46FFF799FDFFF7BFFF0446FDF738FB16
:105490000022074BFFF790FD02460B463046394687
:1054A000FDF7F0F9FFF7B0FF2146D0BD0000F03D59
:1054B0000000F04108B501213A20FCF7AFFABDE841
:1054C000084001212820FCF7A9BA10B501230422C5
:1054D00005210020FCF7BAFF00230122184606210F
:1054E000FCF7B4FFBDE81040012304221846114622
:1054F000FCF7ACBF704708B500F0B6F8FBF740FF0B
:1055000000F0BFF8FFF7F6FFFAE770B501230025BA
:105510000A1F934206DB441814F8043C2A2B06D0D9
:10552000002070BDC45C01336540DBB2F1E728099F
:1055300014F8036CFBF730FF8642F1D105F00F0041
:1055400014F8024CFBF728FF231A58425841E8E7A9
:105550007047704700F006B8704770477047704753
:10556000704770470F20704708B501213A20FCF7BB
:1055700055FABDE80840FFF7EBBF01213A20FCF7E0
:105580004DBAFEE710B53AB1002350F8234041F878
:10559000234001339A42F8D110BD002070474FF4E8
:1055A000004070474FF47A707047FEE74FF0FF30CD
:1055B0007047FEE7002070470120704701207047C8
:1055C0004FF0FF30704700207047002070470020E8
:1055D000704708B5FCF72AF8BDE808400021FCF741
:1055E000F7B90029CCBF01210021FCF7F1B9022154
:1055F0004FF42070FCF73ABD10B5FCF705F80446EF
:10560000FCF748F8C0F102012046FFF7EAFF01214C
:105610000020FCF72DFEFCF7BBFDBDE81040FCF7B9
:10562000F3BAEFF3108072B6704700B962B67047F4
:105630007047704770B5054614460E46FFF7F1FFF8
:105640002B685C4034405C402C60BDE87040FFF744
:10565000ECBF83691B06FCD5406AC0B27047836902
:105660005B06FCD5C163704708B5FBF70FFFFFF77A
:1056700070FFFFF76FFFFFF76FFFBDE80840FFF710
:105680006CBF08B5FFF76AFFFFF769FFFFF768FF18
:10569000BDE80840FFF765BF9368013B002B9360AE
:1056A00010B408DA9469A34201DB0A2903D15DF83A
:1056B000044B00F01AB81368581C106008461970A3
:1056C0005DF8044B7047F8B506460F461446D518EA
:1056D000AC4201D1002007E03A4614F8011B3046E5
:1056E000FFF7DAFF431CF3D1F8BDF8B50E461446B8
:1056F000054618B1036A0BB9FDF7C2FEA369A360A2
:10570000A3891A0701D5236943B921462846FDF725
:10571000A9FC18B14FF0FF373846F8BD2368F6B240
:1057200022693746981A6369834205DC2146284678
:1057300000F00EF90028EDD1A368013BA3602368B7
:105740005A1C22601E70431C62699A4204D0A389CD
:10575000DB07E1D50A2EDFD12146284600F0F8F814
:105760000028D9D0D6E72DE9F047164698468A6832
:1057700007460B690C46DDF820909342B8BF1346EC
:10578000336091F843200AB10133336023689906EE
:1057900042BF336802333360256815F0060506D131
:1057A00004F1190AE36832689B1AAB422BDC94F8C7
:1057B00043302268003B18BF0123920630D404F125
:1057C000430241463846C847013023D023681A3483
:1057D00054F80A2C03F00603042B0ABF54F80E5C9D
:1057E000002533684FF0000608BFED1A54F8123C4C
:1057F00008BF25EAE5759342C4BF9B1AED18B54270
:105800001AD1002008E00123524641463846C847D5
:10581000013003D14FF0FF30BDE8F0870135C1E71B
:10582000E1185A1C30200233224481F8430094F8D6
:10583000451082F84310C2E701232246414638460C
:10584000C8470130E6D00136D9E7B1F90C202DE97F
:10585000F041170705460C4656D44B68002B02DC76
:105860000B6C002B3DDDE66A002E3AD0002312F4CB
:1058700080522F68216A2B6025D0626DA38958075A
:1058800005D56368D21A636B0BB1236CD21A216AF7
:105890000023E66A2846B047411C24D000236360F9
:1058A00023692360A389DA0400D56065616B2F60EA
:1058B000B9B104F14403994202D02846FDF740FEF5
:1058C000002363630DE001232846B047461C0246CF
:1058D000D4D12B68002BD1D01D2B01D0162B2AD16F
:1058E0002F6000202EE02A68B4F90C3042B11D2A46
:1058F00001D0162A21D10023636023692360D5E7F4
:10590000626022692260CEE70F69002FE9D0930719
:105910000E680F600CBF4B690023A6EB07088B6075
:10592000B8F1000FDDDD43463A46216A2846A66AF3
:10593000B047002808DCB4F90C3043F040034FF0C6
:10594000FF30A381BDE8F0810744A8EB0008E7E73A
:1059500038B50B6905460C4613B90025284638BDF5
:1059600018B1036A0BB9FDF78BFDB4F90C30002BAD
:10597000F3D0626ED00704D4990502D4A06D00F074
:1059800019FA28462146FFF760FF636E0546DA07DD
:10599000E4D4A3899B05E1D4A06D00F00CFADDE707
:1059A000C9B20346024410B59342184601D1002003
:1059B00003E0047801338C42F6D110BD10B56AB112
:1059C0000139841810F8012B11F8013F9A4203D1D4
:1059D000A04201D0002AF5D1D01A10BD1046FCE734
:1059E000034613F8012B002AFBD1181A013870471F
:1059F00010B50C46B1F90E10FEF7C4FB0028ABBF82
:105A0000636DA3891B1823F48053ACBF6365A38126
:105A100010BD002070472DE9F0411F468B890546D7
:105A20000C46DB05164605D502230022B1F90E10FF
:105A3000FEF796FBA3893246B4F90E10284623F4EC
:105A40008053A3813B46BDE8F041FDF75BBD10B537
:105A50000C46B1F90E10FEF783FB431CA38915BF5A
:105A6000606523F4805343F48053A38118BFA3815E
:105A700010BDB1F90E10FEF789BA0021FDF754BD33
:105A80002DE9F8430746884614460026D4E90195D7
:105A9000B9F1010905D52468002CF7D13046BDE8DD
:105AA000F883AB89012B07D9B5F90E30013303D048
:105AB00029463846C04706436835E9E702440346AD
:105AC000934200D1704703F8011BF9E72DE9F0413B
:105AD000804615460C4621B91146BDE8F041FEF757
