:1000000000100020B10300001318000013180000B6
:100010001318000013180000131800001318000034
:100020001318000013180000131800001318000024
:100030001318000013180000131800001318000014
:100040001318000013180000131800001318000004
:1000500013180000131800001318000013180000F4
:1000600013180000131800001318000013180000E4
:1000700013180000131800001318000013180000D4
:1000800013180000131800001318000013180000C4
:1000900013180000131800001318000013180000B4
:1000A00013180000131800001318000013180000A4
:1000B0001318000013180000131800001318000094
:1000C0001318000013180000131800001318000084
:1000D0001318000013180000131800001318000074
:1000E0001318000013180000131800001318000064
:1000F0001318000013180000131800001318000054
:100100001318000013180000131800001318000043
:100110001318000013180000131800001318000033
:100120001318000013180000131800001318000023
:100130001318000013180000131800001318000013
:100140000348044B834202D0034B03B11847704766
:100150001C1000201C10002000000000064B074966
:10016000C91A891048BF0131491003D0044B0BB1A3
:1001700001481847704700BF1C1000201C100020C9
:100180000000000010B5064C237843B9FFF7D8FFF4
:10019000044B13B10448AFF300800123237010BD5A
:1001A0003810002000000000A81A000008B5054B18
:1001B0001BB105490548AFF30080BDE80840FFF7D3
:1001C000CDBF00BF000000001C100020A81A0000D6
:1001D000A3F5803A704700BF174B002B08BF134BA5
:1001E0009D46FFF7F5FF00218B460F461348144A42
:1001F000121A01F07CFB0E4B002B00D098470D4BE0
:10020000002B00D098470020002104000D000D486D
:10021000002802D00C48AFF3008001F089FA2000DA
:10022000290001F0D3FA01F071FA00BF00000800C4
:100230000000000000000000001000201C10002042
:100240003C100020000000000000000030B589B024
:10025000104D01AC0FCD0FC495E8070084E80700EE
:100260004FF4A0220C4B0D4CC3F834264FF4C0229F
:10027000C3F82C2614222046C3F81C2601A901F03D
:1002800025F900234FF416521946204601F076F85E
:1002900009B030BD4019000000C0035000C0055037
:1002A00010B5234C00F0BCFC00F0AAFE236F23F035
:1002B000070343F00303236701F0D4FA1D4B00202A
:1002C0009B6A9B075EBF01221B4B9A62D4F82031C8
:1002D00023F0030343F00203C4F82031D4F824319F
:1002E00023F0070343F00203C4F82431D4F840316B
:1002F00023F0030343F00203C4F84031D4F8603123
:1003000023F0030343F00203C4F86031D4F8403211
:1003100023F0030343F00203C4F84032D4F8003260
:1003200023F0070343F00203C4F8003210BD00BFFE
:100330000080005000C0005000E0005008B501F0FF
:1003400015F801280ED1104B04205A6E4FF480236B
:100350000E49520358BF0E4A4B6601F51041086220
:1003600058BF536601F0B4F901F04FFA01F040F9BB
:1003700001F098F901F05EF9FFF792FF01F048F9FA
:10038000BDE8084001F038BA0080005000900050ED
:1003900000A000500348044A0449121A921001F0C8
:1003A00039BA00BFD81A0000D81A00003C1000204B
:1003B00008B500F02FF8FFF7EDFF124B12498B4202
:1003C00012D30020114B12498B4218D3FFF704FFC0
:1003D000186850F82240586840F822400132986866
:1003E0008242F5D30C33EAE70022F8E71C6844F8B0
:1003F000220001325C68A242F8D30833E4E700220D
:10040000F8E700BFB01A0000BC1A0000BC1A0000D8
:10041000BC1A000010B54FF400414FF0FF30124BF2
:10042000124A9A60D3F8882042F47002C3F88820F8
:100430000F4A916601F1884101F5005210664FF6AE
:10044000DF7050660220C3F8D000BFF34F8FBFF3B8
:100450006F8F08244FF440330648C0F88041D360C2
:1004600004600B6110BD00BF00ED00E00000000063
:100470000090005000E100E0014B1868704700BF99
:1004800004100020084B1B6F03F00703022B04D05D
:10049000032B05D0012B05D0FEE7044B18687047ED
:1004A000034BFBE703487047008000500410002016
:1004B0000C100020002D310108B5FFF7E3FF054BBC
:1004C0001B6FC3F303330133B0FBF3F0024B18602F
:1004D00008BD00BF00800050001000200048704799
:1004E00000B4C404014B1868704700BF0C10002012
:1004F000054B1860054B1B6F03F00703032B01D15D
:10050000FFF7DABF704700BF0C10002000800050DA
:1005100000487047002D3101014B1868704700BF3B
:1005200008100020044BD3F88420D206FBD4D3F863
:100530008400C0F3811070470040005038B5104B64
:100540000546D3F820310C4603F00303022B0BD0F1
:10055000032B0DD0012B0FD1FFF78EFF052305B123
:10056000286004B1236038BDFFF7BCFF0323F6E722
:10057000FFF7CEFF0223F2E701230020EFE700BFE1
:1005800000800050F7B50027114B0197D3F8804148
:10059000064604F00304012C0D4608D0022C12D0AC
:1005A00041F2AC410B4801F048F93C4604E03946C1
:1005B00001A8FFF7C3FF0F240EB1019B336005B103
:1005C0002C6003B0F0BDFFF7A3FF0190F4E700BF7C
:1005D000008000505C19000038B51A4B0546D3F86E
:1005E00024010C4600F00700062821D8DFE800F0BF
:1005F000280410181C0C1400FFF73EFF052305B15A
:10060000286004B1236038BDFFF736FF0623F6E704
:10061000FFF768FF0323F2E7FFF764FF0423EEE729
:10062000FFF776FF0223EAE701F0FFF80723E6E78A
:10063000054841F2770101F000F900231846DEE792
:100640000123DCE7008000505C19000038B5104B36
:100650000546D3F840310C4603F00303022B0BD0C0
:10066000032B0DD0012B0FD101F0E1F8092305B1C7
:10067000286004B1236038BDFFF74EFF0823F6E77A
:1006800001F0D8F80B23F2E701230020EFE700BFC9
:100690000080005038B5164B0546D3F800020C46D2
:1006A00000F00700042819D8DFE800F020030B0F42
:1006B000130001F0BCF8092305B1286004B12360E0
:1006C00038BDFFF729FF0823F6E701F0B3F80B2345
:1006D000F2E7FFF7F1FE0E23800AEDE7054841F24D
:1006E000765101F0AAF800231846E5E70123E3E775
:1006F000008000505C19000038B5124B0546D3F855
:1007000040320C4603F00303022B0BD0032B0DD019
:10071000012B0FD101F08BF8092305B1286004B13A
:10072000236038BDFFF7F8FE0823F6E701F082F8F2
:100730000B23F2E7044841F2FC4101F07EF800236C
:100740001846EAE7008000505C19000038B5104BED
:100750000546D3F860310C4603F00303022B0BD09F
:10076000032B0DD0012B0FD101F061F8092305B146
:10077000286004B1236038BDFFF7CEFE0823F6E7FA
:1007800001F058F80B23F2E701230020EFE700BF48
:100790000080005010B40F4C0B46D4F8204204F0F7
:1007A0000304012C0ED0022C10D008B100210160EE
:1007B0000BB100221A6041F2A70107485DF8044B13
:1007C00001F03BB85DF8044BFFF7B8BE5DF8044B91
:1007D000FFF73CBF008000505C19000010B5B0F579
:1007E000207F34D009D8B0F5007F2AD003D898B143
:1007F000B0F5C07F10D0002421E0B0F5607FFAD1C1
:10080000154BD3F88030C3F301149B0617D5032C86
:1008100015D040F2BE210FE00F4B1C6F230B13F0DD
:100820000E0FC4F303340AD0072C08D00F2C06D0C7
:10083000032C04D040F2AD21084800F0FEFF601CFC
:1008400010BD054BD3F89040C4F30464F7E7024BA6
:100850001C6FC4F38024F2E7008000505C19000094
:1008600010B54FF400320E4B04469A660020FFF795
:10087000B5FF604341F671320A4C0B4BA04294BF66
:1008800000200120D969DA639A6822F4401242EA12
:1008900000529A60CA0344BF0022DA6310BD00BF51
:1008A00000900050005A62020000035070B54609E3
:1008B00004460D460ED140F25D310D4800F0BDFFFB
:1008C000334604F01F047DB103F580530122A2409A
:1008D0001A6070BD012E05D0064B074A022E18BFC4
:1008E0001346EEE7054BECE703F50053EEE700BFD8
:1008F0005C190000688000506082005064800050E5
:1009000030B585B0002380280446019374D02AD8DE
:10091000002877D0A0F12004412C32D8412C30D8C7
:10092000DFE804F070737073888888887373923F6F
:10093000A8653F7373732F2F2F2F2F2F8D5773732E
:1009400073B2AD732F2F2F2F2F2F2F2F2F2F2F2F2E
:100950002F702F707070882F2F2F2F2F2F2F2F2F4A
:100960002F2F2F2F7070B0F5806F63D024D8B0F583
:10097000007F55D00BD8B0F5807F6AD0B0F5C07F2E
:1009800040D040F2CA41434800F057FF37E0B0F58D
:10099000607F45D0F5D8B0F5207F36D0B0F5407FE8
:1009A000EFD1FFF789FD04464FF42070FFF716FFE3
:1009B000B4FBF0F4640831E0B0F5C06F5AD00DD844
:1009C000B0F5A06F3BD0B0F5B06F3DD0B0F5906FF3
:1009D000D7D1002101A8FFF7FFFD10E0B0F5E06FCF
:1009E0004DD0B0F5F06F4FD0B0F5D06FC9D1002128
:1009F00001A8FFF74FFE02E0FFF744FD01900198C8
:100A000005B030BDFFF758FDF8E7FFF755FD044688
:100A10004FF42070FFF7E2FEB4FBF0F40194EEE730
:100A2000FFF730FD05462046FFF7D8FEB5FBF0F591
:100A30000195E4E7002101A8FFF780FDDFE7002131
:100A400001A8FFF7A7FEDAE7002101A8FFF79AFD4A
:100A5000D5E702934FF0E0231B695B0705D5FFF74D
:100A60002BFD0290029B0193C9E703A902A8FFF79F
:100A7000EDFDF7E7002101A8FFF7E8FDBFE7002142
:100A800001A8FFF739FEBAE7002101A8FFF75EFED3
:100A9000B5E700BF5C19000008B58020FFF730FF04
:100AA000034B98429EBF4FF48032024B1A6708BD39
:100AB000005A620200A000501FB50023B0F5807FED
:100AC00001937FD027D8382800F09C800BD8243899
:100AD000092810D809280ED8DFE800F06F6F6F6F73
:100AE0000D0D670D3685522867D007D83D283AD0BE
:100AF0003E2800F08C8040F2B25152E08028FAD1BA
:100B0000454B1B6F03F00703013B032B47D8DFE87E
:100B100003F044413F75B0F5D06F64D019D8B0F5FB
:100B2000A06F6FD00AD8B0F5806F46D0B0F5906F47
:100B3000E1D1002001A9FFF74FFD3AE0B0F5B06F19
:100B400033D0B0F5C06FD6D1002001A9FFF77EFDEC
:100B50002FE0B0F5006FECD00AD8B0F5E06F56D0BA
:100B6000B0F5F06FC7D1002001A9FFF7EFFD20E03D
:100B7000B0F5086FBFD1284BD3F8003103F0030361
:100B8000022B35D0032B37D0012B39D1FFF7AAFC2C
:100B9000032300E0052301930BE00223FBE740F26F
:100BA000FF411E4800F049FE03E0002001A9FFF7C5
:100BB000E9FC019805B05DF804FB002001A9FFF7EE
:100BC000BDFCF6E702934FF0E0231B695B0705D5F8
:100BD000FFF772FC0C230393039BDCE703A902A835
:100BE000FFF734FDF8E7002001A9FFF753FDE0E728
:100BF000FFF792FC0823CEE700F017FE0723CAE7B1
:100C00000123C8E7002001A9FFF7C4FDD1E70020B8
:100C100001A9FFF771FDCCE7008000505C190000CE
:100C20004FF40022034B5A66012203F580439A6277
:100C3000704700BF00900050F8B5036804460F2BC2
:100C400004D940F6EF316C4800F0F7FD63680F2BD4
:100C500004D940F6F131684800F0EFFDA3680F2B8E
:100C600004D940F6F331644800F0E7FD237B0F2BF5
:100C700004D940F6F531604800F0DFFD637B0F2BAF
:100C800004D940F6F7315C4800F0D7FDA37B3F2B39
:100C900004D940F6F931584800F0CFFDE37B3F2BF3
:100CA00004D940F6FB31544800F0C7FD2369032BFB
:100CB00004D940F6FD31504800F0BFFD6369032BB5
:100CC00004D940F6FF314C4800F0B7FDE369012B31
:100CD00004D940F60141484800F0AFFD8020FFF7FD
:100CE000EBFE032800F087804FF40022434B0221E3
:100CF0005A6645F60E03424AC2F88030414B99626B
:100D0000012103F580539962936DD903FCD4D4E992
:100D100000131B0543EA0163E17B94F820500B4369
:100D2000217BE77E43EA0143617B6D0143EA0133A6
:100D3000A17B43EA811313619169D4E904031B0683
:100D400043EA806301F000410B43A17E94F8230045
:100D50000B43217E43EA0143617E43EA0123936111
:100D6000136AE66923F00D0394F8221043EA87031F
:100D7000002E2DD11362966A94F8213045EA0313B0
:100D800026F033052B4343F0010393621E4D1C4BA9
:100D90009A6D35EA0202FBD102221A4DAA621A6547
:100DA0009A6D5200FCD41A69A56822F4700242EAD6
:100DB00005521A614FF00042124B9A6119B9022292
:100DC00003F580539A6278B90122104B9A620BE0C6
:100DD000334343F008031362936A23F0330303435E
:100DE0002B4343EA4103936294F824301BB1044B34
:100DF000074AC3F88020F8BD5C190000009000503D
:100E000000C0005000D000500300014000E000503E
:100E1000F1A7FFFF014B93F9000070473910002044
:100E200010B543680446072B04D940F65C612A4894
:100E300000F003FDA368032B04D940F65E61264849
:100E400000F0FBFC2378032B04D940F65F612248B5
:100E500000F0F3FC94F90130002B04DA4FF46661E2
:100E60001D4800F0EAFC4FF480011C4A637851668B
:100E70004FF4D151022002F5B832516218494F2B7C
:100E800048604FF0010028BF4F2301F580514860B2
:100E90001169C903FCD4217843EA01235361D4E9E1
:100EA00001131B0143EA0123617B0B43217B43EACE
:100EB00041039360E37BA17B1B0143EA4113617C07
:100EC0000B43217C43EA41035360A37C13B16FF4CD
:100ED000D153536210BD00BF5C1900000090005058
:100EE00000100250014B1880704700BF1210002004
:100EF000014B1880704700BF1010002010B5B0F5EE
:100F0000207F65D00ED8B0F5007F4FD003D800B356
:100F1000B0F5C07F1DD040F23E31BDE810403448EE
:100F200000F08BBCB0F5607FF5D14C1E012C06D9CA
:100F3000042904D04FF448712D4800F07EFC2D4A5E
:100F4000D2F8803023F0300343EA0413C2F8803033
:100F500010BD4C1E012C0AD9102903D8264BCB40BA
:100F6000DB0704D440F2F221214800F066FC00F0D7
:100F700066FC00F072FC4FF48031204B1D4A19676B
:100F8000136F23F4704343EA04331367FFF794FAB3
:100F90000446FFF7C7FAC0F10201204600F057FCF3
:100FA00000F03EF8BDE81040FFF776BD4C1E1F2C48
:100FB00004D940F232310E4800F03FFC0D4AD2F81D
:100FC000903023F0F85343EA0463C2F89030BFE74F
:100FD0004C1E012C04D94FF44E71054800F02DFC35
:100FE000044A136F23F4806343EA84231367AFE753
:100FF0005C190000008000501001010000900050BA
:1010000008B50121022000F027F800F018FC00F0DC
:1010100024FC4FF48032014B1A6708BD0090005049
:1010200008B54FF4C070FFF76BFCBDE808400449F9
:10103000884294BF012102214FF42070FFF75EBF68
:1010400080F0FA02034A0179D36E23F030030B4398
:10105000D366704700400050F8B50446244BD3F8DF
:101060008420D006FBD4D3F88430C3F381139C4290
:101070003CD0FFF707FA012C05460BD11D4B9842D7
:1010800004D940F2E9711C4800F0D7FB0121284641
:1010900000F0DDFB00F0FBFB4FF00072174B074642
:1010A0005A66204600F0FAFB4FF48063104E621E31
:1010B00093403367736E9A0103D4D6F884309B064D
:1010C0000AD5384600F0E7FB022C0FD12846BDE8D0
:1010D000F840002100F0BBBBD6F884309906E9D572
:1010E0004FF4FF61044800F0A8FBE3E7F8BD00BF40
:1010F00000400050005A62028E190000006000504B
:1011000010B50C4608B9FFF7BDF9074B21461B780F
:101110003BB1064B984204D80120BDE81040FFF7D0
:101120009BBF0220F9E700BF3A100020005A62027C
:1011300038B54FF00042264B26495A6601224A60D4
:101140004AF6CD3103F50B235D6C1964154030BBB5
:101150009968C9070BD4002401221F4B5A6015B1AE
:101160001E4B1F4A1A6400F09AFB204638BD1A49EC
:101170008A601C4AD96ACC0705D4904201D1072461
:10118000EAE70130F6E79042E5D1F8E70132DC6AA0
:1011900014F0080406D08A42F8D10724DFE70022C1
:1011A0001049F4E78A42F8D020220B4B0B495A62CF
:1011B0000122A3F580539A6023460A4A486A8006B2
:1011C00003D49342E9D00133F8E79342C7D1E4E76F
:1011D0000090005000500950006009500040095034
:1011E0003254FFFF40420F0038B54FF00042174B1A
:1011F000174C5A66012203F50C235A604AF6CD3388
:10120000656C2364437893401343124AD363C378D5
:101210008178A2689B0043EA011322F07402134311
:10122000A3600279837943EA022323614279C37977
:1012300043EA022363610078FFF77AFFEB0744BFBC
:10124000054B236400F02BFB012038BD00900050BB
:1012500000400950004000503254FFFF38B50328C9
:1012600004460D4605D80B4B33F81030CB40DB0756
:1012700004D440F22D41084800F0DFFA3022012367
:10128000544341F2100204F1A044AB4004F5703421
:10129000A35038BD281A0000C019000038B5032833
:1012A00004460D4605D80B4B33F81030CB40DB0716
:1012B00004D440F2FE31084800F0BFFA3022012386
:1012C000544342F2100204F1A044AB4004F57034E0
:1012D000A35038BD281A0000C0190000F8B5032833
:1012E00004460D4616461F4605D81C4B33F81030F1
:1012F000CB40DB0704D440F26B11194800F09DFA93
:1013000026B129462046CFB1FFF7A8FF04EB4403DE
:10131000072D4FF00F014FEA031312D8A80006FA69
:1013200000F281400F48184400F0BAFAAEB92946DD
:10133000204677B1BDE8F840FFF790BFFFF7AEFF5A
:10134000E4E7A5F10800800006FA00F281400648B3
:10135000E9E7BDE8F840FFF7A1BFF8BD281A000093
:10136000F419000004C003500CC00350024B18686D
:10137000C0F30740704700BF0080E00FF8B5074694
:101380000C461D4616464AB940F24711314800F056
:1013900054FA24B1402D09D1062328E021B94FF495
:1013A0002070FFF7ADFA0446402D42D0402D09D8F9
:1013B0007DB1202D17D04FF4C871BDE8F840254805
:1013C00000F03BBA602DF6D1B6EB940F3CD8042365
:1013D0000DE0B6EB141F04D940F27B111D4800F05C
:1013E0002CFA102303E0B6EBD40F1CD808235E437D
:1013F000730803EB4413B3FBF6F3174E203BB6EB35
:10140000C30F4FEAC30404D24FF4D471114800F063
:1014100014FABB68344023F06003BB60BB681D4313
:10142000BD60FC61F8BD4FF4C0710A4800F005FAD8
:10143000DCE70623B4FBF3F3B342ADD240F28511EF
:10144000044800F0FAF9A7E74FF4C571014800F02D
:10145000F4F9BCE7301A0000F8FF7F0010B5174B15
:101460000446984208D003F58043984204D040F2E5
:101470006D41134800F0E1F9012204F580535A60F0
:1014800040F6AA6341F20502636100230D49A3609F
:10149000E365E26004F500522361E361E364916473
:1014A0000649A3658C4203D123650023636502E0EE
:1014B00005498C42F8D00123536010BD00C005508F
:1014C000301A0000FFFF01000000065070B5444BC9
:1014D000044698420D4608D003F58043984204D054
:1014E00040F212313F4800F0A8F92046FFF7B6FF5E
:1014F000012304F580567360AB7C1BB1A36843F0F5
:101500008043A360EB7C5BB1354A2B7D944245D18F
:10151000A2F51032C2F88C31E36D43F08003E3652D
:101520002A8A6B7B20461343EA891343E3602B7BB3
:10153000D5E90112FFF722FF6B7D1BB1A36843F4CD
:101540008033A360AB7D1BB1A36843F40043A36069
:10155000EB7D2A7E1B07120502F4E00203F0E04354
:101560001343A365697E1E4A8B1E012B1E4B1FD899
:1015700094421BD002F5804294420CBF01224FF0EE
:10158000FF3203EB4213022041F21C620329985000
:1015900020D10423F3652B78636170BD134A944214
:1015A00004BFA2F52032C2F89C31B5E70022E8E77B
:1015B00094420DD00D4A94420CBF01224FF0FF32ED
:1015C00003EB4213022042F21C6201299850DFE72C
:1015D0000022F5E7042204F50053DA65DBE700BFDB
:1015E00000C00550301A000000C003500000065033
:1015F00007B56B46054A1068516803C36846FFF794
:10160000F3FD002003B05DF804FB00BF611A000089
:1016100013B50024064A6846536F43F0010353672D
:1016200000948DF80440FFF70DFD204602B010BD78
:101630000040005030B58BB06C46174D0FCD0FC435
:101640000FCD0FC495E8030084E80300134BD3F8D3
:101650004C2112031CD5A3F5FE431C884FF6FF73E3
:101660009C4208BF8C248DF81940FFF7D3FB20441F
:1016700080F308008DF818000948FEF739FF684626
:10168000FFF7DAFA3220FFF733FC00200BB030BD51
:10169000D3F85041E4B2E6E76C1A00000080E00F96
:1016A00000F0490230B587B0084D01AC0FCD0FC432
:1016B0002B6801A8236019238DF80530FFF7B0FBD4
:1016C0003220FFF70FFC002007B030BD941A000055
:1016D00010B56FF0040350210A480B4C13F0800F33
:1016E00003F1010207D12344402A83F80013134673
:1016F000F4D1002010BD03F00F03043B034419761E
:101700001346EBE700ED00E000E100E008B5064B12
:10171000044613B10021AFF30080044B1B6803B1F2
:101720009847204600F08AF800000000341000209E
:1017300070B50D4D00260D4C641BA410A64209D1B6
:101740000B4D00260B4C00F0DBF8641BA410A642E6
:1017500005D170BD55F8043B01369847EEE755F8C2
:10176000043B01369847F2E71410002014100020C3
:10177000141000201810002008B501213A20FFF7AE
:1017800095F8BDE8084001212820FFF78FB810B573
:101790000123042205210020FFF7A0FD00230122E0
:1017A00018460621FFF79AFDBDE8104001230422E8
:1017B00018461146FFF792BD08B5FFF7DDFFFFF7AA
:1017C000E6FFBDE80840FEF741BD704708B500F0F0
:1017D00076F8FFF7F1FF00F07FF8FFF7F6FFFAE782
:1017E0007047704700F006B8704770477047704701
:1017F000704770470F20704708B501213A20FFF766
:1018000055F8BDE80840FFF7EBBF01213A20FFF78C
:101810004DB8FEE710B53AB1002350F8234041F827
:10182000234001339A42F8D110BD002070474FF495
:10183000004070474FF47A707047FEE7FEE708B546
:10184000FEF74CFEBDE808400021FFF709B800296B
:10185000CCBF01210021FFF703B802214FF4207013
:10186000FFF74CBB10B5FEF727FE0446FEF75AFE05
:10187000C0F102012046FFF7EAFF01210020FFF737
:101880003FFCFFF7CDFBBDE81040FFF705B9EFF3D4
:10189000108072B6704700B962B6704770477047E3
:1018A00070B5054614460E46FFF7F1FF2B685C4005
:1018B00034405C402C60BDE87040FFF7ECBF08B5D9
:1018C000FEF73CFDFFF78DFFFFF78CFFFFF78CFF66
:1018D000BDE80840FFF789BF08B5FFF787FFFFF7AE
:1018E00086FFFFF785FFBDE80840FFF782BF02448F
:1018F0000346934200D1704703F8011BF9E700004B
:10190000F8B500BFF8BC08BC9E467047F8B500BFEC
:10191000F8BC08BC9E4670470000000000000000B4
:1019200000000000000000000000000000000000B7
:1019300000000000000000000000000000000000A7
:10194000050000000000000000C2010000050000CA
:101950000010000000000000000000002F686F6D04
:10196000652F61617469722F6765636B6F5F736464
:101970006B2F706C6174666F726D2F656D6C696230
:101980002F7372632F656D5F636D752E63002F6813
:101990006F6D652F61617469722F6765636B6F5F2F
:1019A00073646B2F706C6174666F726D2F656D6CF4
:1019B00069622F7372632F656D5F656D752E6300AD
:1019C0002F686F6D652F61617469722F6765636B36
:1019D0006F5F73646B2F2F706C6174666F726D2F05
:1019E000656D6C69622F696E632F656D5F677069E5
:1019F0006F2E68002F686F6D652F61617469722F9B
:101A00006765636B6F5F73646B2F706C6174666F77
:101A1000726D2F656D6C69622F7372632F656D5FD8
:101A20006770696F2E630000FF011F00FF000C004C
:101A30002E2E2F6765636B6F5F73646B5F342E347C
:101A40002E302F706C6174666F726D2F656D6C69CE
:101A5000622F7372632F656D5F75736172742E638D
:101A60000001030401010109030000000B00000054
:101A70000B00000002000000000020200000000019
:101A8000030000008C8C3C000000000000000000FF
:101A9000000000000126000004000000000000001B
:081AA00000010000000000003D
:081AA80028E7FF7F01000000A8
:0C1AB000BC1A000000100020070000001D
:101ABC00C0EA2101C0EA21010080000000F04902C7
:0C1ACC00FFFFFFFFAD01000085010000DE
:04000003000003B145
:00000001FF
